{
  "_format": "hh-sol-artifact-1",
  "contractName": "BettingPool",
  "sourceName": "contracts/BettingPool.sol",
  "abi": [
    {
      "inputs": [
        {
          "internalType": "address",
          "name": "_usdcToken",
          "type": "address"
        }
      ],
      "stateMutability": "nonpayable",
      "type": "constructor"
    },
    {
      "inputs": [
        {
          "internalType": "address",
          "name": "owner",
          "type": "address"
        }
      ],
      "name": "OwnableInvalidOwner",
      "type": "error"
    },
    {
      "inputs": [
        {
          "internalType": "address",
          "name": "account",
          "type": "address"
        }
      ],
      "name": "OwnableUnauthorizedAccount",
      "type": "error"
    },
    {
      "inputs": [],
      "name": "ReentrancyGuardReentrantCall",
      "type": "error"
    },
    {
      "anonymous": false,
      "inputs": [
        {
          "indexed": true,
          "internalType": "uint256",
          "name": "matchId",
          "type": "uint256"
        },
        {
          "indexed": true,
          "internalType": "address",
          "name": "bettor",
          "type": "address"
        },
        {
          "indexed": false,
          "internalType": "uint256",
          "name": "amount",
          "type": "uint256"
        },
        {
          "indexed": false,
          "internalType": "bool",
          "name": "forPlayer1",
          "type": "bool"
        }
      ],
      "name": "BetPlaced",
      "type": "event"
    },
    {
      "anonymous": false,
      "inputs": [
        {
          "indexed": true,
          "internalType": "address",
          "name": "previousOwner",
          "type": "address"
        },
        {
          "indexed": true,
          "internalType": "address",
          "name": "newOwner",
          "type": "address"
        }
      ],
      "name": "OwnershipTransferred",
      "type": "event"
    },
    {
      "anonymous": false,
      "inputs": [
        {
          "indexed": true,
          "internalType": "uint256",
          "name": "matchId",
          "type": "uint256"
        },
        {
          "indexed": false,
          "internalType": "uint8",
          "name": "result",
          "type": "uint8"
        }
      ],
      "name": "ResultSet",
      "type": "event"
    },
    {
      "anonymous": false,
      "inputs": [
        {
          "indexed": true,
          "internalType": "uint256",
          "name": "matchId",
          "type": "uint256"
        },
        {
          "indexed": true,
          "internalType": "address",
          "name": "bettor",
          "type": "address"
        },
        {
          "indexed": false,
          "internalType": "uint256",
          "name": "amount",
          "type": "uint256"
        }
      ],
      "name": "WinningsClaimed",
      "type": "event"
    },
    {
      "inputs": [
        {
          "internalType": "uint256",
          "name": "",
          "type": "uint256"
        },
        {
          "internalType": "address",
          "name": "",
          "type": "address"
        }
      ],
      "name": "bets",
      "outputs": [
        {
          "internalType": "address",
          "name": "player",
          "type": "address"
        },
        {
          "internalType": "uint256",
          "name": "amount",
          "type": "uint256"
        },
        {
          "internalType": "uint256",
          "name": "matchId",
          "type": "uint256"
        },
        {
          "internalType": "bool",
          "name": "claimed",
          "type": "bool"
        }
      ],
      "stateMutability": "view",
      "type": "function"
    },
    {
      "inputs": [
        {
          "internalType": "uint256",
          "name": "_matchId",
          "type": "uint256"
        }
      ],
      "name": "claim",
      "outputs": [],
      "stateMutability": "nonpayable",
      "type": "function"
    },
    {
      "inputs": [],
      "name": "matchResult",
      "outputs": [
        {
          "internalType": "uint256",
          "name": "",
          "type": "uint256"
        }
      ],
      "stateMutability": "view",
      "type": "function"
    },
    {
      "inputs": [],
      "name": "owner",
      "outputs": [
        {
          "internalType": "address",
          "name": "",
          "type": "address"
        }
      ],
      "stateMutability": "view",
      "type": "function"
    },
    {
      "inputs": [
        {
          "internalType": "uint256",
          "name": "_matchId",
          "type": "uint256"
        },
        {
          "internalType": "uint256",
          "name": "_amount",
          "type": "uint256"
        },
        {
          "internalType": "bool",
          "name": "_forPlayer1",
          "type": "bool"
        }
      ],
      "name": "placeBet",
      "outputs": [],
      "stateMutability": "nonpayable",
      "type": "function"
    },
    {
      "inputs": [],
      "name": "renounceOwnership",
      "outputs": [],
      "stateMutability": "nonpayable",
      "type": "function"
    },
    {
      "inputs": [],
      "name": "resultSet",
      "outputs": [
        {
          "internalType": "bool",
          "name": "",
          "type": "bool"
        }
      ],
      "stateMutability": "view",
      "type": "function"
    },
    {
      "inputs": [
        {
          "internalType": "uint256",
          "name": "_matchId",
          "type": "uint256"
        },
        {
          "internalType": "uint8",
          "name": "_result",
          "type": "uint8"
        }
      ],
      "name": "setResult",
      "outputs": [],
      "stateMutability": "nonpayable",
      "type": "function"
    },
    {
      "inputs": [
        {
          "internalType": "uint256",
          "name": "",
          "type": "uint256"
        }
      ],
      "name": "totalPoolP1",
      "outputs": [
        {
          "internalType": "uint256",
          "name": "",
          "type": "uint256"
        }
      ],
      "stateMutability": "view",
      "type": "function"
    },
    {
      "inputs": [
        {
          "internalType": "uint256",
          "name": "",
          "type": "uint256"
        }
      ],
      "name": "totalPoolP2",
      "outputs": [
        {
          "internalType": "uint256",
          "name": "",
          "type": "uint256"
        }
      ],
      "stateMutability": "view",
      "type": "function"
    },
    {
      "inputs": [
        {
          "internalType": "address",
          "name": "newOwner",
          "type": "address"
        }
      ],
      "name": "transferOwnership",
      "outputs": [],
      "stateMutability": "nonpayable",
      "type": "function"
    },
    {
      "inputs": [],
      "name": "usdcToken",
      "outputs": [
        {
          "internalType": "contract IERC20",
          "name": "",
          "type": "address"
        }
      ],
      "stateMutability": "view",
      "type": "function"
    }
  ],
  "bytecode": "0x60806040523480156200001157600080fd5b50604051620018083803806200180883398181016040528101906200003791906200023c565b33600073ffffffffffffffffffffffffffffffffffffffff168173ffffffffffffffffffffffffffffffffffffffff1603620000ad5760006040517f1e4fbdf7000000000000000000000000000000000000000000000000000000008152600401620000a491906200027f565b60405180910390fd5b620000be816200010e60201b60201c565b506001808190555080600260006101000a81548173ffffffffffffffffffffffffffffffffffffffff021916908373ffffffffffffffffffffffffffffffffffffffff160217905550506200029c565b60008060009054906101000a900473ffffffffffffffffffffffffffffffffffffffff169050816000806101000a81548173ffffffffffffffffffffffffffffffffffffffff021916908373ffffffffffffffffffffffffffffffffffffffff1602179055508173ffffffffffffffffffffffffffffffffffffffff168173ffffffffffffffffffffffffffffffffffffffff167f8be0079c531659141344cd1fd0a4f28419497f9722a3daafe3b4186f6b6457e060405160405180910390a35050565b600080fd5b600073ffffffffffffffffffffffffffffffffffffffff82169050919050565b60006200020482620001d7565b9050919050565b6200021681620001f7565b81146200022257600080fd5b50565b60008151905062000236816200020b565b92915050565b600060208284031215620002555762000254620001d2565b5b6000620002658482850162000225565b91505092915050565b6200027981620001f7565b82525050565b60006020820190506200029660008301846200026e565b92915050565b61155c80620002ac6000396000f3fe608060405234801561001057600080fd5b50600436106100b45760003560e01c8063715018a611610071578063715018a6146101795780638da5cb5b14610183578063b69ca2fd146101a1578063df7bf704146101d1578063f2fde38b146101ef578063f644b3bb1461020b576100b4565b80630bfef656146100b957806311eac855146100e95780631e977e7814610107578063379607f5146101255780634486c8061461014157806356150a361461015d575b600080fd5b6100d360048036038101906100ce9190610dc6565b61023e565b6040516100e09190610e02565b60405180910390f35b6100f1610256565b6040516100fe9190610e9c565b60405180910390f35b61010f61027c565b60405161011c9190610ed2565b60405180910390f35b61013f600480360381019061013a9190610dc6565b61028f565b005b61015b60048036038101906101569190610f19565b6106e6565b005b61017760048036038101906101729190610fa5565b6109e5565b005b610181610a9e565b005b61018b610ab2565b6040516101989190611006565b60405180910390f35b6101bb60048036038101906101b69190610dc6565b610adb565b6040516101c89190610e02565b60405180910390f35b6101d9610af3565b6040516101e69190610e02565b60405180910390f35b6102096004803603810190610204919061104d565b610af9565b005b6102256004803603810190610220919061107a565b610b7f565b60405161023594939291906110ba565b60405180910390f35b60036020528060005260406000206000915090505481565b600260009054906101000a900473ffffffffffffffffffffffffffffffffffffffff1681565b600760009054906101000a900460ff1681565b610297610be9565b600760009054906101000a900460ff166102e6576040517f08c379a00000000000000000000000000000000000000000000000000000000081526004016102dd9061115c565b60405180910390fd5b6005600082815260200190815260200160002060003373ffffffffffffffffffffffffffffffffffffffff1673ffffffffffffffffffffffffffffffffffffffff16815260200190815260200160002060030160009054906101000a900460ff1615610387576040517f08c379a000000000000000000000000000000000000000000000000000000000815260040161037e906111c8565b60405180910390fd5b60006005600083815260200190815260200160002060003373ffffffffffffffffffffffffffffffffffffffff1673ffffffffffffffffffffffffffffffffffffffff16815260200190815260200160002090506000816001015411610422576040517f08c379a000000000000000000000000000000000000000000000000000000000815260040161041990611234565b60405180910390fd5b6000600460008481526020019081526020016000205460036000858152602001908152602001600020546104569190611283565b90506000806000600654148015610483575060036000868152602001908152602001600020548460010154145b80156104a2575060006003600087815260200190815260200160002054115b156104b05760019050610502565b60016006541480156104d8575060046000868152602001908152602001600020548460010154145b80156104f7575060006004600087815260200190815260200160002054115b1561050157600190505b5b801561057d5760006006540361054757600360008681526020019081526020016000205483856001015461053691906112b7565b6105409190611328565b9150610578565b600460008681526020019081526020016000205483856001015461056b91906112b7565b6105759190611328565b91505b610582565b600091505b60018460030160006101000a81548160ff021916908315150217905550600082111561068857600260009054906101000a900473ffffffffffffffffffffffffffffffffffffffff1673ffffffffffffffffffffffffffffffffffffffff1663a9059cbb33846040518363ffffffff1660e01b8152600401610605929190611359565b6020604051808303816000875af1158015610624573d6000803e3d6000fd5b505050506040513d601f19601f820116820180604052508101906106489190611397565b610687576040517f08c379a000000000000000000000000000000000000000000000000000000000815260040161067e90611410565b60405180910390fd5b5b3373ffffffffffffffffffffffffffffffffffffffff16857f5380cf6fe903b40c6d5a9e0dfbca2f3a423f0a21520b4d5947ed5169bdba946d846040516106cf9190610e02565b60405180910390a3505050506106e3610c2f565b50565b6106ee610be9565b600760009054906101000a900460ff161561073e576040517f08c379a00000000000000000000000000000000000000000000000000000000081526004016107359061147c565b60405180910390fd5b600260009054906101000a900473ffffffffffffffffffffffffffffffffffffffff1673ffffffffffffffffffffffffffffffffffffffff166323b872dd3330856040518463ffffffff1660e01b815260040161079d9392919061149c565b6020604051808303816000875af11580156107bc573d6000803e3d6000fd5b505050506040513d601f19601f820116820180604052508101906107e09190611397565b61081f576040517f08c379a000000000000000000000000000000000000000000000000000000000815260040161081690611410565b60405180910390fd5b801561085457816003600085815260200190815260200160002060008282546108489190611283565b9250508190555061087f565b816004600085815260200190815260200160002060008282546108779190611283565b925050819055505b60405180608001604052803373ffffffffffffffffffffffffffffffffffffffff168152602001838152602001848152602001600015158152506005600085815260200190815260200160002060003373ffffffffffffffffffffffffffffffffffffffff1673ffffffffffffffffffffffffffffffffffffffff16815260200190815260200160002060008201518160000160006101000a81548173ffffffffffffffffffffffffffffffffffffffff021916908373ffffffffffffffffffffffffffffffffffffffff160217905550602082015181600101556040820151816002015560608201518160030160006101000a81548160ff0219169083151502179055509050503373ffffffffffffffffffffffffffffffffffffffff16837fb1bd10cf5ea9540f12b9b182707734fd82deacc56830e2bd316133deb372bff484846040516109d09291906114d3565b60405180910390a36109e0610c2f565b505050565b6109ed610c38565b600760009054906101000a900460ff1615610a3d576040517f08c379a0000000000000000000000000000000000000000000000000000000008152600401610a349061147c565b60405180910390fd5b8060ff166006819055506001600760006101000a81548160ff021916908315150217905550817f96a72b23d1215cfbff54a1749ea932981d1fcff3f46592daf9331409cfbf7e3d82604051610a92919061150b565b60405180910390a25050565b610aa6610c38565b610ab06000610cbf565b565b60008060009054906101000a900473ffffffffffffffffffffffffffffffffffffffff16905090565b60046020528060005260406000206000915090505481565b60065481565b610b01610c38565b600073ffffffffffffffffffffffffffffffffffffffff168173ffffffffffffffffffffffffffffffffffffffff1603610b735760006040517f1e4fbdf7000000000000000000000000000000000000000000000000000000008152600401610b6a9190611006565b60405180910390fd5b610b7c81610cbf565b50565b6005602052816000526040600020602052806000526040600020600091509150508060000160009054906101000a900473ffffffffffffffffffffffffffffffffffffffff16908060010154908060020154908060030160009054906101000a900460ff16905084565b600260015403610c25576040517f3ee5aeb500000000000000000000000000000000000000000000000000000000815260040160405180910390fd5b6002600181905550565b60018081905550565b610c40610d83565b73ffffffffffffffffffffffffffffffffffffffff16610c5e610ab2565b73ffffffffffffffffffffffffffffffffffffffff1614610cbd57610c81610d83565b6040517f118cdaa7000000000000000000000000000000000000000000000000000000008152600401610cb49190611006565b60405180910390fd5b565b60008060009054906101000a900473ffffffffffffffffffffffffffffffffffffffff169050816000806101000a81548173ffffffffffffffffffffffffffffffffffffffff021916908373ffffffffffffffffffffffffffffffffffffffff1602179055508173ffffffffffffffffffffffffffffffffffffffff168173ffffffffffffffffffffffffffffffffffffffff167f8be0079c531659141344cd1fd0a4f28419497f9722a3daafe3b4186f6b6457e060405160405180910390a35050565b600033905090565b600080fd5b6000819050919050565b610da381610d90565b8114610dae57600080fd5b50565b600081359050610dc081610d9a565b92915050565b600060208284031215610ddc57610ddb610d8b565b5b6000610dea84828501610db1565b91505092915050565b610dfc81610d90565b82525050565b6000602082019050610e176000830184610df3565b92915050565b600073ffffffffffffffffffffffffffffffffffffffff82169050919050565b6000819050919050565b6000610e62610e5d610e5884610e1d565b610e3d565b610e1d565b9050919050565b6000610e7482610e47565b9050919050565b6000610e8682610e69565b9050919050565b610e9681610e7b565b82525050565b6000602082019050610eb16000830184610e8d565b92915050565b60008115159050919050565b610ecc81610eb7565b82525050565b6000602082019050610ee76000830184610ec3565b92915050565b610ef681610eb7565b8114610f0157600080fd5b50565b600081359050610f1381610eed565b92915050565b600080600060608486031215610f3257610f31610d8b565b5b6000610f4086828701610db1565b9350506020610f5186828701610db1565b9250506040610f6286828701610f04565b9150509250925092565b600060ff82169050919050565b610f8281610f6c565b8114610f8d57600080fd5b50565b600081359050610f9f81610f79565b92915050565b60008060408385031215610fbc57610fbb610d8b565b5b6000610fca85828601610db1565b9250506020610fdb85828601610f90565b9150509250929050565b6000610ff082610e1d565b9050919050565b61100081610fe5565b82525050565b600060208201905061101b6000830184610ff7565b92915050565b61102a81610fe5565b811461103557600080fd5b50565b60008135905061104781611021565b92915050565b60006020828403121561106357611062610d8b565b5b600061107184828501611038565b91505092915050565b6000806040838503121561109157611090610d8b565b5b600061109f85828601610db1565b92505060206110b085828601611038565b9150509250929050565b60006080820190506110cf6000830187610ff7565b6110dc6020830186610df3565b6110e96040830185610df3565b6110f66060830184610ec3565b95945050505050565b600082825260208201905092915050565b7f526573756c74206e6f7420736574000000000000000000000000000000000000600082015250565b6000611146600e836110ff565b915061115182611110565b602082019050919050565b6000602082019050818103600083015261117581611139565b9050919050565b7f416c726561647920636c61696d65640000000000000000000000000000000000600082015250565b60006111b2600f836110ff565b91506111bd8261117c565b602082019050919050565b600060208201905081810360008301526111e1816111a5565b9050919050565b7f4e6f206265740000000000000000000000000000000000000000000000000000600082015250565b600061121e6006836110ff565b9150611229826111e8565b602082019050919050565b6000602082019050818103600083015261124d81611211565b9050919050565b7f4e487b7100000000000000000000000000000000000000000000000000000000600052601160045260246000fd5b600061128e82610d90565b915061129983610d90565b92508282019050808211156112b1576112b0611254565b5b92915050565b60006112c282610d90565b91506112cd83610d90565b92508282026112db81610d90565b915082820484148315176112f2576112f1611254565b5b5092915050565b7f4e487b7100000000000000000000000000000000000000000000000000000000600052601260045260246000fd5b600061133382610d90565b915061133e83610d90565b92508261134e5761134d6112f9565b5b828204905092915050565b600060408201905061136e6000830185610ff7565b61137b6020830184610df3565b9392505050565b60008151905061139181610eed565b92915050565b6000602082840312156113ad576113ac610d8b565b5b60006113bb84828501611382565b91505092915050565b7f5472616e73666572206661696c65640000000000000000000000000000000000600082015250565b60006113fa600f836110ff565b9150611405826113c4565b602082019050919050565b60006020820190508181036000830152611429816113ed565b9050919050565b7f526573756c7420616c7265616479207365740000000000000000000000000000600082015250565b60006114666012836110ff565b915061147182611430565b602082019050919050565b6000602082019050818103600083015261149581611459565b9050919050565b60006060820190506114b16000830186610ff7565b6114be6020830185610ff7565b6114cb6040830184610df3565b949350505050565b60006040820190506114e86000830185610df3565b6114f56020830184610ec3565b9392505050565b61150581610f6c565b82525050565b600060208201905061152060008301846114fc565b9291505056fea2646970667358221220ea8267181e25c01f4853045fdaab9b7af18f7fe75f6f04d201158b8a923b54c864736f6c63430008140033",
  "linkReferences": {},
  "deployedLinkReferences": {}
}