{
  "_format": "hh-sol-artifact-1",
  "contractName": "AgentVerifier",
  "sourceName": "contracts/AgentVerifier.sol",
  "abi": [
    {
      "inputs": [
        {
          "internalType": "address",
          "name": "_agentRegistry",
          "type": "address"
        }
      ],
      "stateMutability": "nonpayable",
      "type": "constructor"
    },
    {
      "inputs": [],
      "name": "ECDSAInvalidSignature",
      "type": "error"
    },
    {
      "inputs": [
        {
          "internalType": "uint256",
          "name": "length",
          "type": "uint256"
        }
      ],
      "name": "ECDSAInvalidSignatureLength",
      "type": "error"
    },
    {
      "inputs": [
        {
          "internalType": "bytes32",
          "name": "s",
          "type": "bytes32"
        }
      ],
      "name": "ECDSAInvalidSignatureS",
      "type": "error"
    },
    {
      "inputs": [],
      "name": "InvalidShortString",
      "type": "error"
    },
    {
      "inputs": [
        {
          "internalType": "address",
          "name": "owner",
          "type": "address"
        }
      ],
      "name": "OwnableInvalidOwner",
      "type": "error"
    },
    {
      "inputs": [
        {
          "internalType": "address",
          "name": "account",
          "type": "address"
        }
      ],
      "name": "OwnableUnauthorizedAccount",
      "type": "error"
    },
    {
      "inputs": [
        {
          "internalType": "string",
          "name": "str",
          "type": "string"
        }
      ],
      "name": "StringTooLong",
      "type": "error"
    },
    {
      "anonymous": false,
      "inputs": [
        {
          "indexed": true,
          "internalType": "bytes32",
          "name": "agentId",
          "type": "bytes32"
        },
        {
          "indexed": true,
          "internalType": "address",
          "name": "ethAddress",
          "type": "address"
        }
      ],
      "name": "AgentVerified",
      "type": "event"
    },
    {
      "anonymous": false,
      "inputs": [
        {
          "indexed": true,
          "internalType": "bytes32",
          "name": "agentId",
          "type": "bytes32"
        },
        {
          "indexed": false,
          "internalType": "bytes32",
          "name": "challenge",
          "type": "bytes32"
        }
      ],
      "name": "ChallengePosted",
      "type": "event"
    },
    {
      "anonymous": false,
      "inputs": [
        {
          "indexed": true,
          "internalType": "bytes32",
          "name": "agentId",
          "type": "bytes32"
        },
        {
          "indexed": false,
          "internalType": "bool",
          "name": "success",
          "type": "bool"
        }
      ],
      "name": "ChallengeSolved",
      "type": "event"
    },
    {
      "anonymous": false,
      "inputs": [],
      "name": "EIP712DomainChanged",
      "type": "event"
    },
    {
      "anonymous": false,
      "inputs": [
        {
          "indexed": true,
          "internalType": "address",
          "name": "previousOwner",
          "type": "address"
        },
        {
          "indexed": true,
          "internalType": "address",
          "name": "newOwner",
          "type": "address"
        }
      ],
      "name": "OwnershipTransferred",
      "type": "event"
    },
    {
      "inputs": [],
      "name": "VERIFY_TYPEHASH",
      "outputs": [
        {
          "internalType": "bytes32",
          "name": "",
          "type": "bytes32"
        }
      ],
      "stateMutability": "view",
      "type": "function"
    },
    {
      "inputs": [],
      "name": "agentRegistry",
      "outputs": [
        {
          "internalType": "contract IAgentRegistry",
          "name": "",
          "type": "address"
        }
      ],
      "stateMutability": "view",
      "type": "function"
    },
    {
      "inputs": [
        {
          "internalType": "bytes32",
          "name": "_agentId",
          "type": "bytes32"
        },
        {
          "internalType": "address",
          "name": "_ethAddress",
          "type": "address"
        }
      ],
      "name": "canParticipate",
      "outputs": [
        {
          "internalType": "bool",
          "name": "",
          "type": "bool"
        }
      ],
      "stateMutability": "view",
      "type": "function"
    },
    {
      "inputs": [
        {
          "internalType": "bytes32",
          "name": "",
          "type": "bytes32"
        }
      ],
      "name": "challenges",
      "outputs": [
        {
          "internalType": "bytes32",
          "name": "",
          "type": "bytes32"
        }
      ],
      "stateMutability": "view",
      "type": "function"
    },
    {
      "inputs": [],
      "name": "eip712Domain",
      "outputs": [
        {
          "internalType": "bytes1",
          "name": "fields",
          "type": "bytes1"
        },
        {
          "internalType": "string",
          "name": "name",
          "type": "string"
        },
        {
          "internalType": "string",
          "name": "version",
          "type": "string"
        },
        {
          "internalType": "uint256",
          "name": "chainId",
          "type": "uint256"
        },
        {
          "internalType": "address",
          "name": "verifyingContract",
          "type": "address"
        },
        {
          "internalType": "bytes32",
          "name": "salt",
          "type": "bytes32"
        },
        {
          "internalType": "uint256[]",
          "name": "extensions",
          "type": "uint256[]"
        }
      ],
      "stateMutability": "view",
      "type": "function"
    },
    {
      "inputs": [
        {
          "internalType": "bytes32",
          "name": "",
          "type": "bytes32"
        }
      ],
      "name": "isVerified",
      "outputs": [
        {
          "internalType": "bool",
          "name": "",
          "type": "bool"
        }
      ],
      "stateMutability": "view",
      "type": "function"
    },
    {
      "inputs": [
        {
          "internalType": "address",
          "name": "",
          "type": "address"
        }
      ],
      "name": "moltbookVerified",
      "outputs": [
        {
          "internalType": "bool",
          "name": "",
          "type": "bool"
        }
      ],
      "stateMutability": "view",
      "type": "function"
    },
    {
      "inputs": [
        {
          "internalType": "bytes32",
          "name": "",
          "type": "bytes32"
        }
      ],
      "name": "nonces",
      "outputs": [
        {
          "internalType": "uint256",
          "name": "",
          "type": "uint256"
        }
      ],
      "stateMutability": "view",
      "type": "function"
    },
    {
      "inputs": [],
      "name": "owner",
      "outputs": [
        {
          "internalType": "address",
          "name": "",
          "type": "address"
        }
      ],
      "stateMutability": "view",
      "type": "function"
    },
    {
      "inputs": [
        {
          "internalType": "bytes32",
          "name": "_agentId",
          "type": "bytes32"
        },
        {
          "internalType": "bytes32",
          "name": "_challenge",
          "type": "bytes32"
        }
      ],
      "name": "postChallenge",
      "outputs": [],
      "stateMutability": "nonpayable",
      "type": "function"
    },
    {
      "inputs": [],
      "name": "renounceOwnership",
      "outputs": [],
      "stateMutability": "nonpayable",
      "type": "function"
    },
    {
      "inputs": [
        {
          "internalType": "address",
          "name": "newOwner",
          "type": "address"
        }
      ],
      "name": "transferOwnership",
      "outputs": [],
      "stateMutability": "nonpayable",
      "type": "function"
    },
    {
      "inputs": [
        {
          "internalType": "bytes32",
          "name": "_agentId",
          "type": "bytes32"
        },
        {
          "internalType": "bytes32",
          "name": "_challengeAnswer",
          "type": "bytes32"
        },
        {
          "internalType": "bytes",
          "name": "_signature",
          "type": "bytes"
        }
      ],
      "name": "verifyAgent",
      "outputs": [],
      "stateMutability": "nonpayable",
      "type": "function"
    },
    {
      "inputs": [
        {
          "internalType": "address",
          "name": "_ethAddress",
          "type": "address"
        }
      ],
      "name": "verifyMoltbook",
      "outputs": [],
      "stateMutability": "nonpayable",
      "type": "function"
    }
  ],
  "bytecode": "0x6101606040523480156200001257600080fd5b506040516200269b3803806200269b83398181016040528101906200003891906200047e565b6040518060400160405280600a81526020017f436c6177526f79616c65000000000000000000000000000000000000000000008152506040518060400160405280600181526020017f310000000000000000000000000000000000000000000000000000000000000081525033600073ffffffffffffffffffffffffffffffffffffffff168173ffffffffffffffffffffffffffffffffffffffff16036200011a5760006040517f1e4fbdf7000000000000000000000000000000000000000000000000000000008152600401620001119190620004c1565b60405180910390fd5b6200012b816200022460201b60201c565b5062000142600183620002e860201b90919060201c565b610120818152505062000160600282620002e860201b90919060201c565b6101408181525050818051906020012060e08181525050808051906020012061010081815250504660a081815250506200019f6200034060201b60201c565b608081815250503073ffffffffffffffffffffffffffffffffffffffff1660c08173ffffffffffffffffffffffffffffffffffffffff1681525050505080600360006101000a81548173ffffffffffffffffffffffffffffffffffffffff021916908373ffffffffffffffffffffffffffffffffffffffff1602179055505062000a1d565b60008060009054906101000a900473ffffffffffffffffffffffffffffffffffffffff169050816000806101000a81548173ffffffffffffffffffffffffffffffffffffffff021916908373ffffffffffffffffffffffffffffffffffffffff1602179055508173ffffffffffffffffffffffffffffffffffffffff168173ffffffffffffffffffffffffffffffffffffffff167f8be0079c531659141344cd1fd0a4f28419497f9722a3daafe3b4186f6b6457e060405160405180910390a35050565b60006020835110156200030e5762000306836200039d60201b60201c565b90506200033a565b8262000320836200040a60201b60201c565b600001908162000331919062000758565b5060ff60001b90505b92915050565b60007f8b73c3c69bb8fe3d512ecc4cf759cc79239f7b179b0ffacaa9a75d522b39400f60e051610100514630604051602001620003829594939291906200086b565b60405160208183030381529060405280519060200120905090565b600080829050601f81511115620003ed57826040517f305a27a9000000000000000000000000000000000000000000000000000000008152600401620003e4919062000957565b60405180910390fd5b805181620003fb90620009ad565b60001c1760001b915050919050565b6000819050919050565b600080fd5b600073ffffffffffffffffffffffffffffffffffffffff82169050919050565b6000620004468262000419565b9050919050565b620004588162000439565b81146200046457600080fd5b50565b60008151905062000478816200044d565b92915050565b60006020828403121562000497576200049662000414565b5b6000620004a78482850162000467565b91505092915050565b620004bb8162000439565b82525050565b6000602082019050620004d86000830184620004b0565b92915050565b600081519050919050565b7f4e487b7100000000000000000000000000000000000000000000000000000000600052604160045260246000fd5b7f4e487b7100000000000000000000000000000000000000000000000000000000600052602260045260246000fd5b600060028204905060018216806200056057607f821691505b60208210810362000576576200057562000518565b5b50919050565b60008190508160005260206000209050919050565b60006020601f8301049050919050565b600082821b905092915050565b600060088302620005e07fffffffffffffffffffffffffffffffffffffffffffffffffffffffffffffffff82620005a1565b620005ec8683620005a1565b95508019841693508086168417925050509392505050565b6000819050919050565b6000819050919050565b600062000639620006336200062d8462000604565b6200060e565b62000604565b9050919050565b6000819050919050565b620006558362000618565b6200066d620006648262000640565b848454620005ae565b825550505050565b600090565b6200068462000675565b620006918184846200064a565b505050565b5b81811015620006b957620006ad6000826200067a565b60018101905062000697565b5050565b601f8211156200070857620006d2816200057c565b620006dd8462000591565b81016020851015620006ed578190505b62000705620006fc8562000591565b83018262000696565b50505b505050565b600082821c905092915050565b60006200072d600019846008026200070d565b1980831691505092915050565b60006200074883836200071a565b9150826002028217905092915050565b6200076382620004de565b67ffffffffffffffff8111156200077f576200077e620004e9565b5b6200078b825462000547565b62000798828285620006bd565b600060209050601f831160018114620007d05760008415620007bb578287015190505b620007c785826200073a565b86555062000837565b601f198416620007e0866200057c565b60005b828110156200080a57848901518255600182019150602085019450602081019050620007e3565b868310156200082a578489015162000826601f8916826200071a565b8355505b6001600288020188555050505b505050505050565b6000819050919050565b62000854816200083f565b82525050565b620008658162000604565b82525050565b600060a08201905062000882600083018862000849565b62000891602083018762000849565b620008a0604083018662000849565b620008af60608301856200085a565b620008be6080830184620004b0565b9695505050505050565b600082825260208201905092915050565b60005b83811015620008f9578082015181840152602081019050620008dc565b60008484015250505050565b6000601f19601f8301169050919050565b60006200092382620004de565b6200092f8185620008c8565b935062000941818560208601620008d9565b6200094c8162000905565b840191505092915050565b6000602082019050818103600083015262000973818462000916565b905092915050565b600081519050919050565b6000819050602082019050919050565b6000620009a482516200083f565b80915050919050565b6000620009ba826200097b565b82620009c68462000986565b9050620009d38162000996565b9250602082101562000a165762000a117fffffffffffffffffffffffffffffffffffffffffffffffffffffffffffffffff83602003600802620005a1565b831692505b5050919050565b60805160a05160c05160e051610100516101205161014051611c2362000a786000396000610bb201526000610b7701526000610f9a01526000610f7901526000610bf001526000610c4601526000610c6f0152611c236000f3fe608060405234801561001057600080fd5b50600436106100ea5760003560e01c80638da5cb5b1161008c578063c1e69b6611610066578063c1e69b661461023d578063cb6535b51461026d578063f2fde38b1461028b578063fafc7898146102a7576100ea565b80638da5cb5b146101bf5780639e317f12146101dd578063c181b2731461020d576100ea565b806357287615116100c85780635728761514610159578063610de65514610175578063715018a61461019157806384b0196e1461019b576100ea565b80630d1cfcae146100ef578063207c7d731461010d5780632ffb937014610129575b600080fd5b6100f76102d7565b6040516101049190611221565b60405180910390f35b6101276004803603810190610122919061127c565b6102fd565b005b610143600480360381019061013e91906112fa565b610359565b6040516101509190611355565b60405180910390f35b610173600480360381019061016e9190611370565b6103d8565b005b61018f600480360381019061018a9190611402565b61043b565b005b6101996107dc565b005b6101a36107f0565b6040516101b69796959493929190611636565b60405180910390f35b6101c761089a565b6040516101d491906116ba565b60405180910390f35b6101f760048036038101906101f291906116d5565b6108c3565b6040516102049190611702565b60405180910390f35b610227600480360381019061022291906116d5565b6108db565b6040516102349190611355565b60405180910390f35b610257600480360381019061025291906116d5565b6108fb565b604051610264919061171d565b60405180910390f35b610275610913565b604051610282919061171d565b60405180910390f35b6102a560048036038101906102a09190611370565b610937565b005b6102c160048036038101906102bc9190611370565b6109bd565b6040516102ce9190611355565b60405180910390f35b600360009054906101000a900473ffffffffffffffffffffffffffffffffffffffff1681565b6103056109dd565b806006600084815260200190815260200160002081905550817f038dd8ccecbddac550600727f243babd5f863283833e36933973a97ccee859a68260405161034d919061171d565b60405180910390a25050565b60006004600084815260200190815260200160002060009054906101000a900460ff16806103d05750600760008373ffffffffffffffffffffffffffffffffffffffff1673ffffffffffffffffffffffffffffffffffffffff16815260200190815260200160002060009054906101000a900460ff165b905092915050565b6103e06109dd565b6001600760008373ffffffffffffffffffffffffffffffffffffffff1673ffffffffffffffffffffffffffffffffffffffff16815260200190815260200160002060006101000a81548160ff02191690831515021790555050565b6000801b600660008681526020019081526020016000205403610493576040517f08c379a000000000000000000000000000000000000000000000000000000000815260040161048a90611784565b60405180910390fd5b6004600085815260200190815260200160002060009054906101000a900460ff16156104f4576040517f08c379a00000000000000000000000000000000000000000000000000000000081526004016104eb906117f0565b60405180910390fd5b60007f06907f34b218c233d22f8ba7286749ff52760d9ac42edde0a78afe1f9b4a0e688560056000888152602001908152602001600020600081548092919061053c9061183f565b91905055866040516020016105549493929190611887565b604051602081830303815290604052805190602001209050600061057782610a64565b905060006105d285858080601f016020809104026020016040519081016040528093929190818152602001838380828437600081840152601f19601f8201169050808301925050505050505083610a7e90919063ffffffff16565b90508073ffffffffffffffffffffffffffffffffffffffff16600360009054906101000a900473ffffffffffffffffffffffffffffffffffffffff1673ffffffffffffffffffffffffffffffffffffffff16636352211e8960001c6040518263ffffffff1660e01b81526004016106499190611702565b602060405180830381865afa158015610666573d6000803e3d6000fd5b505050506040513d601f19601f8201168201806040525081019061068a91906118e1565b73ffffffffffffffffffffffffffffffffffffffff16146106e0576040517f08c379a00000000000000000000000000000000000000000000000000000000081526004016106d79061195a565b60405180910390fd5b60006006600089815260200190815260200160002054826040516020016107089291906119e3565b604051602081830303815290604052805190602001209050808714610762576040517f08c379a000000000000000000000000000000000000000000000000000000000815260040161075990611a5b565b60405180910390fd5b6001600460008a815260200190815260200160002060006101000a81548160ff0219169083151502179055508173ffffffffffffffffffffffffffffffffffffffff16887fe0790325da0fd60f50be8748023fa65a543fd152c974a5e7a19bbe463fd9d70e60405160405180910390a35050505050505050565b6107e46109dd565b6107ee6000610aaa565b565b600060608060008060006060610804610b6e565b61080c610ba9565b46306000801b600067ffffffffffffffff81111561082d5761082c611a7b565b5b60405190808252806020026020018201604052801561085b5781602001602082028036833780820191505090505b507f0f00000000000000000000000000000000000000000000000000000000000000959493929190965096509650965096509650965090919293949596565b60008060009054906101000a900473ffffffffffffffffffffffffffffffffffffffff16905090565b60056020528060005260406000206000915090505481565b60046020528060005260406000206000915054906101000a900460ff1681565b60066020528060005260406000206000915090505481565b7f06907f34b218c233d22f8ba7286749ff52760d9ac42edde0a78afe1f9b4a0e6881565b61093f6109dd565b600073ffffffffffffffffffffffffffffffffffffffff168173ffffffffffffffffffffffffffffffffffffffff16036109b15760006040517f1e4fbdf70000000000000000000000000000000000000000000000000000000081526004016109a891906116ba565b60405180910390fd5b6109ba81610aaa565b50565b60076020528060005260406000206000915054906101000a900460ff1681565b6109e5610be4565b73ffffffffffffffffffffffffffffffffffffffff16610a0361089a565b73ffffffffffffffffffffffffffffffffffffffff1614610a6257610a26610be4565b6040517f118cdaa7000000000000000000000000000000000000000000000000000000008152600401610a5991906116ba565b60405180910390fd5b565b6000610a77610a71610bec565b83610ca3565b9050919050565b600080600080610a8e8686610ce4565b925092509250610a9e8282610d40565b82935050505092915050565b60008060009054906101000a900473ffffffffffffffffffffffffffffffffffffffff169050816000806101000a81548173ffffffffffffffffffffffffffffffffffffffff021916908373ffffffffffffffffffffffffffffffffffffffff1602179055508173ffffffffffffffffffffffffffffffffffffffff168173ffffffffffffffffffffffffffffffffffffffff167f8be0079c531659141344cd1fd0a4f28419497f9722a3daafe3b4186f6b6457e060405160405180910390a35050565b6060610ba460017f0000000000000000000000000000000000000000000000000000000000000000610ea490919063ffffffff16565b905090565b6060610bdf60027f0000000000000000000000000000000000000000000000000000000000000000610ea490919063ffffffff16565b905090565b600033905090565b60007f000000000000000000000000000000000000000000000000000000000000000073ffffffffffffffffffffffffffffffffffffffff163073ffffffffffffffffffffffffffffffffffffffff16148015610c6857507f000000000000000000000000000000000000000000000000000000000000000046145b15610c95577f00000000000000000000000000000000000000000000000000000000000000009050610ca0565b610c9d610f54565b90505b90565b60006040517f190100000000000000000000000000000000000000000000000000000000000081528360028201528260228201526042812091505092915050565b60008060006041845103610d295760008060006020870151925060408701519150606087015160001a9050610d1b88828585610fea565b955095509550505050610d39565b60006002855160001b9250925092505b9250925092565b60006003811115610d5457610d53611aaa565b5b826003811115610d6757610d66611aaa565b5b0315610ea05760016003811115610d8157610d80611aaa565b5b826003811115610d9457610d93611aaa565b5b03610dcb576040517ff645eedf00000000000000000000000000000000000000000000000000000000815260040160405180910390fd5b60026003811115610ddf57610dde611aaa565b5b826003811115610df257610df1611aaa565b5b03610e37578060001c6040517ffce698f7000000000000000000000000000000000000000000000000000000008152600401610e2e9190611702565b60405180910390fd5b600380811115610e4a57610e49611aaa565b5b826003811115610e5d57610e5c611aaa565b5b03610e9f57806040517fd78bce0c000000000000000000000000000000000000000000000000000000008152600401610e96919061171d565b60405180910390fd5b5b5050565b606060ff60001b8314610ec157610eba836110de565b9050610f4e565b818054610ecd90611b08565b80601f0160208091040260200160405190810160405280929190818152602001828054610ef990611b08565b8015610f465780601f10610f1b57610100808354040283529160200191610f46565b820191906000526020600020905b815481529060010190602001808311610f2957829003601f168201915b505050505090505b92915050565b60007f8b73c3c69bb8fe3d512ecc4cf759cc79239f7b179b0ffacaa9a75d522b39400f7f00000000000000000000000000000000000000000000000000000000000000007f00000000000000000000000000000000000000000000000000000000000000004630604051602001610fcf959493929190611b39565b60405160208183030381529060405280519060200120905090565b60008060007f7fffffffffffffffffffffffffffffff5d576e7357a4501ddfe92f46681b20a08460001c111561102a5760006003859250925092506110d4565b60006001888888886040516000815260200160405260405161104f9493929190611ba8565b6020604051602081039080840390855afa158015611071573d6000803e3d6000fd5b505050602060405103519050600073ffffffffffffffffffffffffffffffffffffffff168173ffffffffffffffffffffffffffffffffffffffff16036110c557600060016000801b935093509350506110d4565b8060008060001b935093509350505b9450945094915050565b606060006110eb83611152565b90506000602067ffffffffffffffff81111561110a57611109611a7b565b5b6040519080825280601f01601f19166020018201604052801561113c5781602001600182028036833780820191505090505b5090508181528360208201528092505050919050565b60008060ff8360001c169050601f811115611199576040517fb3512b0c00000000000000000000000000000000000000000000000000000000815260040160405180910390fd5b80915050919050565b600073ffffffffffffffffffffffffffffffffffffffff82169050919050565b6000819050919050565b60006111e76111e26111dd846111a2565b6111c2565b6111a2565b9050919050565b60006111f9826111cc565b9050919050565b600061120b826111ee565b9050919050565b61121b81611200565b82525050565b60006020820190506112366000830184611212565b92915050565b600080fd5b600080fd5b6000819050919050565b61125981611246565b811461126457600080fd5b50565b60008135905061127681611250565b92915050565b600080604083850312156112935761129261123c565b5b60006112a185828601611267565b92505060206112b285828601611267565b9150509250929050565b60006112c7826111a2565b9050919050565b6112d7816112bc565b81146112e257600080fd5b50565b6000813590506112f4816112ce565b92915050565b600080604083850312156113115761131061123c565b5b600061131f85828601611267565b9250506020611330858286016112e5565b9150509250929050565b60008115159050919050565b61134f8161133a565b82525050565b600060208201905061136a6000830184611346565b92915050565b6000602082840312156113865761138561123c565b5b6000611394848285016112e5565b91505092915050565b600080fd5b600080fd5b600080fd5b60008083601f8401126113c2576113c161139d565b5b8235905067ffffffffffffffff8111156113df576113de6113a2565b5b6020830191508360018202830111156113fb576113fa6113a7565b5b9250929050565b6000806000806060858703121561141c5761141b61123c565b5b600061142a87828801611267565b945050602061143b87828801611267565b935050604085013567ffffffffffffffff81111561145c5761145b611241565b5b611468878288016113ac565b925092505092959194509250565b60007fff0000000000000000000000000000000000000000000000000000000000000082169050919050565b6114ab81611476565b82525050565b600081519050919050565b600082825260208201905092915050565b60005b838110156114eb5780820151818401526020810190506114d0565b60008484015250505050565b6000601f19601f8301169050919050565b6000611513826114b1565b61151d81856114bc565b935061152d8185602086016114cd565b611536816114f7565b840191505092915050565b6000819050919050565b61155481611541565b82525050565b611563816112bc565b82525050565b61157281611246565b82525050565b600081519050919050565b600082825260208201905092915050565b6000819050602082019050919050565b6115ad81611541565b82525050565b60006115bf83836115a4565b60208301905092915050565b6000602082019050919050565b60006115e382611578565b6115ed8185611583565b93506115f883611594565b8060005b8381101561162957815161161088826115b3565b975061161b836115cb565b9250506001810190506115fc565b5085935050505092915050565b600060e08201905061164b600083018a6114a2565b818103602083015261165d8189611508565b905081810360408301526116718188611508565b9050611680606083018761154b565b61168d608083018661155a565b61169a60a0830185611569565b81810360c08301526116ac81846115d8565b905098975050505050505050565b60006020820190506116cf600083018461155a565b92915050565b6000602082840312156116eb576116ea61123c565b5b60006116f984828501611267565b91505092915050565b6000602082019050611717600083018461154b565b92915050565b60006020820190506117326000830184611569565b92915050565b7f4e6f206368616c6c656e676520706f7374656400000000000000000000000000600082015250565b600061176e6013836114bc565b915061177982611738565b602082019050919050565b6000602082019050818103600083015261179d81611761565b9050919050565b7f416c726561647920766572696669656400000000000000000000000000000000600082015250565b60006117da6010836114bc565b91506117e5826117a4565b602082019050919050565b60006020820190508181036000830152611809816117cd565b9050919050565b7f4e487b7100000000000000000000000000000000000000000000000000000000600052601160045260246000fd5b600061184a82611541565b91507fffffffffffffffffffffffffffffffffffffffffffffffffffffffffffffffff820361187c5761187b611810565b5b600182019050919050565b600060808201905061189c6000830187611569565b6118a96020830186611569565b6118b6604083018561154b565b6118c36060830184611569565b95945050505050565b6000815190506118db816112ce565b92915050565b6000602082840312156118f7576118f661123c565b5b6000611905848285016118cc565b91505092915050565b7f496e76616c6964207369676e6174757265000000000000000000000000000000600082015250565b60006119446011836114bc565b915061194f8261190e565b602082019050919050565b6000602082019050818103600083015261197381611937565b9050919050565b6000819050919050565b61199561199082611246565b61197a565b82525050565b60008160601b9050919050565b60006119b38261199b565b9050919050565b60006119c5826119a8565b9050919050565b6119dd6119d8826112bc565b6119ba565b82525050565b60006119ef8285611984565b6020820191506119ff82846119cc565b6014820191508190509392505050565b7f57726f6e6720616e737765720000000000000000000000000000000000000000600082015250565b6000611a45600c836114bc565b9150611a5082611a0f565b602082019050919050565b60006020820190508181036000830152611a7481611a38565b9050919050565b7f4e487b7100000000000000000000000000000000000000000000000000000000600052604160045260246000fd5b7f4e487b7100000000000000000000000000000000000000000000000000000000600052602160045260246000fd5b7f4e487b7100000000000000000000000000000000000000000000000000000000600052602260045260246000fd5b60006002820490506001821680611b2057607f821691505b602082108103611b3357611b32611ad9565b5b50919050565b600060a082019050611b4e6000830188611569565b611b5b6020830187611569565b611b686040830186611569565b611b75606083018561154b565b611b82608083018461155a565b9695505050505050565b600060ff82169050919050565b611ba281611b8c565b82525050565b6000608082019050611bbd6000830187611569565b611bca6020830186611b99565b611bd76040830185611569565b611be46060830184611569565b9594505050505056fea2646970667358221220e121429a667d5cb3c5c3102c04923b9d47ead406d63eb20b2508ea2e7de6beac64736f6c63430008140033",
  "linkReferences": {},
  "deployedLinkReferences": {}
}