{
  "_format": "hh-sol-artifact-1",
  "contractName": "ClawRoyale",
  "sourceName": "contracts/ClawRoyale.sol",
  "abi": [
    {
      "inputs": [
        {
          "internalType": "address",
          "name": "_usdcToken",
          "type": "address"
        },
        {
          "internalType": "address",
          "name": "_agentVerifier",
          "type": "address"
        }
      ],
      "stateMutability": "nonpayable",
      "type": "constructor"
    },
    {
      "inputs": [
        {
          "internalType": "address",
          "name": "owner",
          "type": "address"
        }
      ],
      "name": "OwnableInvalidOwner",
      "type": "error"
    },
    {
      "inputs": [
        {
          "internalType": "address",
          "name": "account",
          "type": "address"
        }
      ],
      "name": "OwnableUnauthorizedAccount",
      "type": "error"
    },
    {
      "inputs": [],
      "name": "ReentrancyGuardReentrantCall",
      "type": "error"
    },
    {
      "anonymous": false,
      "inputs": [
        {
          "indexed": true,
          "internalType": "uint256",
          "name": "matchId",
          "type": "uint256"
        },
        {
          "indexed": false,
          "internalType": "address",
          "name": "winner",
          "type": "address"
        },
        {
          "indexed": false,
          "internalType": "uint256",
          "name": "score",
          "type": "uint256"
        }
      ],
      "name": "MatchCompleted",
      "type": "event"
    },
    {
      "anonymous": false,
      "inputs": [
        {
          "indexed": true,
          "internalType": "uint256",
          "name": "matchId",
          "type": "uint256"
        },
        {
          "indexed": false,
          "internalType": "address",
          "name": "p1",
          "type": "address"
        },
        {
          "indexed": false,
          "internalType": "address",
          "name": "p2",
          "type": "address"
        }
      ],
      "name": "MatchCreated",
      "type": "event"
    },
    {
      "anonymous": false,
      "inputs": [
        {
          "indexed": true,
          "internalType": "address",
          "name": "previousOwner",
          "type": "address"
        },
        {
          "indexed": true,
          "internalType": "address",
          "name": "newOwner",
          "type": "address"
        }
      ],
      "name": "OwnershipTransferred",
      "type": "event"
    },
    {
      "anonymous": false,
      "inputs": [
        {
          "indexed": true,
          "internalType": "bytes32",
          "name": "agentId",
          "type": "bytes32"
        },
        {
          "indexed": true,
          "internalType": "address",
          "name": "ethAddress",
          "type": "address"
        },
        {
          "indexed": true,
          "internalType": "address",
          "name": "referrer",
          "type": "address"
        }
      ],
      "name": "PlayerRegistered",
      "type": "event"
    },
    {
      "anonymous": false,
      "inputs": [
        {
          "indexed": true,
          "internalType": "address",
          "name": "player",
          "type": "address"
        },
        {
          "indexed": false,
          "internalType": "uint256",
          "name": "amount",
          "type": "uint256"
        }
      ],
      "name": "PrizeClaimed",
      "type": "event"
    },
    {
      "anonymous": false,
      "inputs": [
        {
          "indexed": true,
          "internalType": "address",
          "name": "funder",
          "type": "address"
        },
        {
          "indexed": false,
          "internalType": "uint256",
          "name": "amount",
          "type": "uint256"
        }
      ],
      "name": "PrizePoolFunded",
      "type": "event"
    },
    {
      "anonymous": false,
      "inputs": [
        {
          "indexed": true,
          "internalType": "address",
          "name": "referrer",
          "type": "address"
        },
        {
          "indexed": false,
          "internalType": "uint256",
          "name": "amount",
          "type": "uint256"
        }
      ],
      "name": "ReferralRewardPaid",
      "type": "event"
    },
    {
      "anonymous": false,
      "inputs": [],
      "name": "TournamentCompleted",
      "type": "event"
    },
    {
      "anonymous": false,
      "inputs": [],
      "name": "TournamentStarted",
      "type": "event"
    },
    {
      "anonymous": false,
      "inputs": [
        {
          "indexed": true,
          "internalType": "bytes32",
          "name": "paymentId",
          "type": "bytes32"
        },
        {
          "indexed": true,
          "internalType": "address",
          "name": "from",
          "type": "address"
        },
        {
          "indexed": false,
          "internalType": "uint256",
          "name": "amount",
          "type": "uint256"
        }
      ],
      "name": "X402PaymentReceived",
      "type": "event"
    },
    {
      "inputs": [],
      "name": "agentVerifier",
      "outputs": [
        {
          "internalType": "contract AgentVerifier",
          "name": "",
          "type": "address"
        }
      ],
      "stateMutability": "view",
      "type": "function"
    },
    {
      "inputs": [
        {
          "internalType": "uint256",
          "name": "",
          "type": "uint256"
        }
      ],
      "name": "battles",
      "outputs": [
        {
          "internalType": "address",
          "name": "player1",
          "type": "address"
        },
        {
          "internalType": "address",
          "name": "player2",
          "type": "address"
        },
        {
          "internalType": "uint256",
          "name": "player1Score",
          "type": "uint256"
        },
        {
          "internalType": "uint256",
          "name": "player2Score",
          "type": "uint256"
        },
        {
          "internalType": "bool",
          "name": "completed",
          "type": "bool"
        },
        {
          "internalType": "uint256",
          "name": "timestamp",
          "type": "uint256"
        }
      ],
      "stateMutability": "view",
      "type": "function"
    },
    {
      "inputs": [],
      "name": "claimPrize",
      "outputs": [],
      "stateMutability": "nonpayable",
      "type": "function"
    },
    {
      "inputs": [],
      "name": "completeTournament",
      "outputs": [],
      "stateMutability": "nonpayable",
      "type": "function"
    },
    {
      "inputs": [],
      "name": "entryFee",
      "outputs": [
        {
          "internalType": "uint256",
          "name": "",
          "type": "uint256"
        }
      ],
      "stateMutability": "view",
      "type": "function"
    },
    {
      "inputs": [
        {
          "internalType": "uint256",
          "name": "_amount",
          "type": "uint256"
        }
      ],
      "name": "fundPrizePool",
      "outputs": [],
      "stateMutability": "nonpayable",
      "type": "function"
    },
    {
      "inputs": [],
      "name": "getLeaderboard",
      "outputs": [
        {
          "components": [
            {
              "internalType": "address",
              "name": "player",
              "type": "address"
            },
            {
              "internalType": "uint256",
              "name": "score",
              "type": "uint256"
            },
            {
              "internalType": "uint256",
              "name": "battlesWon",
              "type": "uint256"
            }
          ],
          "internalType": "struct ClawRoyale.LeaderboardEntry[]",
          "name": "",
          "type": "tuple[]"
        }
      ],
      "stateMutability": "view",
      "type": "function"
    },
    {
      "inputs": [],
      "name": "getPaymentCount",
      "outputs": [
        {
          "internalType": "uint256",
          "name": "",
          "type": "uint256"
        }
      ],
      "stateMutability": "view",
      "type": "function"
    },
    {
      "inputs": [],
      "name": "getPlayerCount",
      "outputs": [
        {
          "internalType": "uint256",
          "name": "",
          "type": "uint256"
        }
      ],
      "stateMutability": "view",
      "type": "function"
    },
    {
      "inputs": [
        {
          "internalType": "uint256",
          "name": "",
          "type": "uint256"
        }
      ],
      "name": "leaderboard",
      "outputs": [
        {
          "internalType": "address",
          "name": "player",
          "type": "address"
        },
        {
          "internalType": "uint256",
          "name": "score",
          "type": "uint256"
        },
        {
          "internalType": "uint256",
          "name": "battlesWon",
          "type": "uint256"
        }
      ],
      "stateMutability": "view",
      "type": "function"
    },
    {
      "inputs": [],
      "name": "owner",
      "outputs": [
        {
          "internalType": "address",
          "name": "",
          "type": "address"
        }
      ],
      "stateMutability": "view",
      "type": "function"
    },
    {
      "inputs": [
        {
          "internalType": "uint256",
          "name": "",
          "type": "uint256"
        }
      ],
      "name": "paymentIds",
      "outputs": [
        {
          "internalType": "bytes32",
          "name": "",
          "type": "bytes32"
        }
      ],
      "stateMutability": "view",
      "type": "function"
    },
    {
      "inputs": [],
      "name": "platformFee",
      "outputs": [
        {
          "internalType": "uint256",
          "name": "",
          "type": "uint256"
        }
      ],
      "stateMutability": "view",
      "type": "function"
    },
    {
      "inputs": [
        {
          "internalType": "uint256",
          "name": "",
          "type": "uint256"
        }
      ],
      "name": "playerList",
      "outputs": [
        {
          "internalType": "address",
          "name": "",
          "type": "address"
        }
      ],
      "stateMutability": "view",
      "type": "function"
    },
    {
      "inputs": [
        {
          "internalType": "address",
          "name": "",
          "type": "address"
        }
      ],
      "name": "players",
      "outputs": [
        {
          "internalType": "bytes32",
          "name": "agentId",
          "type": "bytes32"
        },
        {
          "internalType": "address",
          "name": "ethAddress",
          "type": "address"
        },
        {
          "internalType": "uint256",
          "name": "score",
          "type": "uint256"
        },
        {
          "internalType": "bool",
          "name": "eliminated",
          "type": "bool"
        },
        {
          "internalType": "bool",
          "name": "registered",
          "type": "bool"
        },
        {
          "internalType": "address",
          "name": "referrer",
          "type": "address"
        },
        {
          "internalType": "bool",
          "name": "claimedPrize",
          "type": "bool"
        }
      ],
      "stateMutability": "view",
      "type": "function"
    },
    {
      "inputs": [],
      "name": "prizePool",
      "outputs": [
        {
          "internalType": "uint256",
          "name": "",
          "type": "uint256"
        }
      ],
      "stateMutability": "view",
      "type": "function"
    },
    {
      "inputs": [
        {
          "internalType": "bytes32",
          "name": "_paymentId",
          "type": "bytes32"
        }
      ],
      "name": "recordX402Payment",
      "outputs": [],
      "stateMutability": "nonpayable",
      "type": "function"
    },
    {
      "inputs": [],
      "name": "referralReward",
      "outputs": [
        {
          "internalType": "uint256",
          "name": "",
          "type": "uint256"
        }
      ],
      "stateMutability": "view",
      "type": "function"
    },
    {
      "inputs": [
        {
          "internalType": "bytes32",
          "name": "_agentId",
          "type": "bytes32"
        },
        {
          "internalType": "address",
          "name": "_referrer",
          "type": "address"
        }
      ],
      "name": "register",
      "outputs": [],
      "stateMutability": "nonpayable",
      "type": "function"
    },
    {
      "inputs": [
        {
          "internalType": "bytes32",
          "name": "_agentId",
          "type": "bytes32"
        },
        {
          "internalType": "bytes32",
          "name": "_paymentId",
          "type": "bytes32"
        },
        {
          "internalType": "address",
          "name": "_referrer",
          "type": "address"
        }
      ],
      "name": "registerWithX402",
      "outputs": [],
      "stateMutability": "nonpayable",
      "type": "function"
    },
    {
      "inputs": [],
      "name": "renounceOwnership",
      "outputs": [],
      "stateMutability": "nonpayable",
      "type": "function"
    },
    {
      "inputs": [],
      "name": "startTournament",
      "outputs": [],
      "stateMutability": "nonpayable",
      "type": "function"
    },
    {
      "inputs": [],
      "name": "status",
      "outputs": [
        {
          "internalType": "enum ClawRoyale.TournamentStatus",
          "name": "",
          "type": "uint8"
        }
      ],
      "stateMutability": "view",
      "type": "function"
    },
    {
      "inputs": [
        {
          "internalType": "uint256",
          "name": "_matchId",
          "type": "uint256"
        },
        {
          "internalType": "uint256",
          "name": "_p1Score",
          "type": "uint256"
        },
        {
          "internalType": "uint256",
          "name": "_p2Score",
          "type": "uint256"
        }
      ],
      "name": "submitResult",
      "outputs": [],
      "stateMutability": "nonpayable",
      "type": "function"
    },
    {
      "inputs": [
        {
          "internalType": "address",
          "name": "newOwner",
          "type": "address"
        }
      ],
      "name": "transferOwnership",
      "outputs": [],
      "stateMutability": "nonpayable",
      "type": "function"
    },
    {
      "inputs": [],
      "name": "usdcToken",
      "outputs": [
        {
          "internalType": "contract IERC20",
          "name": "",
          "type": "address"
        }
      ],
      "stateMutability": "view",
      "type": "function"
    },
    {
      "inputs": [
        {
          "internalType": "bytes32",
          "name": "",
          "type": "bytes32"
        }
      ],
      "name": "x402Payments",
      "outputs": [
        {
          "internalType": "bool",
          "name": "",
          "type": "bool"
        }
      ],
      "stateMutability": "view",
      "type": "function"
    }
  ],
  "bytecode": "0x6080604052624c4b4060075560006009556207a120600a553480156200002457600080fd5b5060405162003fba38038062003fba83398181016040528101906200004a9190620002bf565b33600073ffffffffffffffffffffffffffffffffffffffff168173ffffffffffffffffffffffffffffffffffffffff1603620000c05760006040517f1e4fbdf7000000000000000000000000000000000000000000000000000000008152600401620000b7919062000317565b60405180910390fd5b620000d1816200019160201b60201c565b506001808190555081600260006101000a81548173ffffffffffffffffffffffffffffffffffffffff021916908373ffffffffffffffffffffffffffffffffffffffff16021790555080600360006101000a81548173ffffffffffffffffffffffffffffffffffffffff021916908373ffffffffffffffffffffffffffffffffffffffff1602179055506000600660006101000a81548160ff0219169083600281111562000184576200018362000334565b5b0217905550505062000363565b60008060009054906101000a900473ffffffffffffffffffffffffffffffffffffffff169050816000806101000a81548173ffffffffffffffffffffffffffffffffffffffff021916908373ffffffffffffffffffffffffffffffffffffffff1602179055508173ffffffffffffffffffffffffffffffffffffffff168173ffffffffffffffffffffffffffffffffffffffff167f8be0079c531659141344cd1fd0a4f28419497f9722a3daafe3b4186f6b6457e060405160405180910390a35050565b600080fd5b600073ffffffffffffffffffffffffffffffffffffffff82169050919050565b600062000287826200025a565b9050919050565b62000299816200027a565b8114620002a557600080fd5b50565b600081519050620002b9816200028e565b92915050565b60008060408385031215620002d957620002d862000255565b5b6000620002e985828601620002a8565b9250506020620002fc85828601620002a8565b9150509250929050565b62000311816200027a565b82525050565b60006020820190506200032e600083018462000306565b92915050565b7f4e487b7100000000000000000000000000000000000000000000000000000000600052602160045260246000fd5b613c4780620003736000396000f3fe608060405234801561001057600080fd5b50600436106101a95760003560e01c8063719ce73e116100f9578063c2e5220611610097578063e0bcea8d11610071578063e0bcea8d14610469578063e2eb41ff14610485578063f2fde38b146104bb578063f8fddb86146104d7576101a9565b8063c2e5220614610413578063d22057a914610431578063da347eff1461044d576101a9565b8063ae6d9073116100d3578063ae6d907314610389578063af32a03f146103b9578063bf368399146103d7578063bf559d1114610409576101a9565b8063719ce73e1461031d5780638da5cb5b1461033b5780639ba6737c14610359576101a9565b80634d683674116101665780636ecbbb29116101405780636ecbbb29146102bd578063704df750146102d957806370740ac914610309578063715018a614610313576101a9565b80634d6836741461024c578063606d2e961461026a5780636d763a6e1461029f576101a9565b8063072ea61c146101ae57806311eac855146101cc5780631949f0f0146101ea578063200d2ed21461020657806326232a2e146102245780632cbe0dc514610242575b600080fd5b6101b66104f5565b6040516101c39190612ca2565b60405180910390f35b6101d46104fb565b6040516101e19190612d3c565b60405180910390f35b61020460048036038101906101ff9190612d88565b610521565b005b61020e6108f2565b60405161021b9190612e52565b60405180910390f35b61022c610905565b6040516102399190612ca2565b60405180910390f35b61024a61090b565b005b6102546109e2565b6040516102619190612ca2565b60405180910390f35b610284600480360381019061027f9190612e6d565b6109e8565b60405161029696959493929190612ed6565b60405180910390f35b6102a7610a81565b6040516102b49190613046565b60405180910390f35b6102d760048036038101906102d2919061309e565b610b4a565b005b6102f360048036038101906102ee919061309e565b610c54565b60405161030091906130cb565b60405180910390f35b610311610c74565b005b61031b610fb0565b005b610325610fc4565b6040516103329190612ca2565b60405180910390f35b610343610fca565b60405161035091906130e6565b60405180910390f35b610373600480360381019061036e9190612e6d565b610ff3565b6040516103809190613110565b60405180910390f35b6103a3600480360381019061039e9190612e6d565b611017565b6040516103b091906130e6565b60405180910390f35b6103c1611056565b6040516103ce9190612ca2565b60405180910390f35b6103f160048036038101906103ec9190612e6d565b611063565b6040516104009392919061312b565b60405180910390f35b6104116110bd565b005b61041b6111e5565b6040516104289190612ca2565b60405180910390f35b61044b6004803603810190610446919061318e565b6111f2565b005b610467600480360381019061046291906131ce565b6119bb565b005b610483600480360381019061047e9190612e6d565b61212e565b005b61049f600480360381019061049a9190613221565b612289565b6040516104b2979695949392919061324e565b60405180910390f35b6104d560048036038101906104d09190613221565b612332565b005b6104df6123b8565b6040516104ec91906132de565b60405180910390f35b60075481565b600260009054906101000a900473ffffffffffffffffffffffffffffffffffffffff1681565b6105296123de565b6000600e848154811061053f5761053e6132f9565b5b906000526020600020906006020190508060040160009054906101000a900460ff16156105a1576040517f08c379a000000000000000000000000000000000000000000000000000000000815260040161059890613385565b60405180910390fd5b82816002018190555081816003018190555060018160040160006101000a81548160ff02191690831515021790555042816005018190555082600b60008360000160009054906101000a900473ffffffffffffffffffffffffffffffffffffffff1673ffffffffffffffffffffffffffffffffffffffff1673ffffffffffffffffffffffffffffffffffffffff168152602001908152602001600020600201600082825461064f91906133d4565b9250508190555081600b60008360010160009054906101000a900473ffffffffffffffffffffffffffffffffffffffff1673ffffffffffffffffffffffffffffffffffffffff1673ffffffffffffffffffffffffffffffffffffffff16815260200190815260200160002060020160008282546106cc91906133d4565b925050819055506106db612465565b818311156107c5576001600b60008360010160009054906101000a900473ffffffffffffffffffffffffffffffffffffffff1673ffffffffffffffffffffffffffffffffffffffff1673ffffffffffffffffffffffffffffffffffffffff16815260200190815260200160002060030160006101000a81548160ff021916908315150217905550837f0a2413835f07421c275d3e2feac4328391c22c9ed3db28c40b45b55a0c3a2ba68260000160009054906101000a900473ffffffffffffffffffffffffffffffffffffffff16856040516107b8929190613408565b60405180910390a26108ec565b828211156108af576001600b60008360000160009054906101000a900473ffffffffffffffffffffffffffffffffffffffff1673ffffffffffffffffffffffffffffffffffffffff1673ffffffffffffffffffffffffffffffffffffffff16815260200190815260200160002060030160006101000a81548160ff021916908315150217905550837f0a2413835f07421c275d3e2feac4328391c22c9ed3db28c40b45b55a0c3a2ba68260010160009054906101000a900473ffffffffffffffffffffffffffffffffffffffff16846040516108a2929190613408565b60405180910390a26108eb565b837f0a2413835f07421c275d3e2feac4328391c22c9ed3db28c40b45b55a0c3a2ba66000806040516108e292919061346c565b60405180910390a25b5b50505050565b600660009054906101000a900460ff1681565b60095481565b6109136123de565b6001600281111561092757610926612ddb565b5b600660009054906101000a900460ff16600281111561094957610948612ddb565b5b14610989576040517f08c379a0000000000000000000000000000000000000000000000000000000008152600401610980906134e1565b60405180910390fd5b6002600660006101000a81548160ff021916908360028111156109af576109ae612ddb565b5b02179055507fd2758a40620bfc332cc59fb5bd2d95d7cb09ac4a954a8a7c7fc410e0d455e56160405160405180910390a1565b600a5481565b600e81815481106109f857600080fd5b90600052602060002090600602016000915090508060000160009054906101000a900473ffffffffffffffffffffffffffffffffffffffff16908060010160009054906101000a900473ffffffffffffffffffffffffffffffffffffffff16908060020154908060030154908060040160009054906101000a900460ff16908060050154905086565b6060600d805480602002602001604051908101604052809291908181526020016000905b82821015610b4157838290600052602060002090600302016040518060600160405290816000820160009054906101000a900473ffffffffffffffffffffffffffffffffffffffff1673ffffffffffffffffffffffffffffffffffffffff1673ffffffffffffffffffffffffffffffffffffffff1681526020016001820154815260200160028201548152505081526020019060010190610aa5565b50505050905090565b6004600082815260200190815260200160002060009054906101000a900460ff1615610bab576040517f08c379a0000000000000000000000000000000000000000000000000000000008152600401610ba29061354d565b60405180910390fd5b60016004600083815260200190815260200160002060006101000a81548160ff02191690831515021790555060058190806001815401808255809150506001900390600052602060002001600090919091909150553373ffffffffffffffffffffffffffffffffffffffff16817f7480379733a648c16715f01547c5035d58fd53410a850f5917e6dd4fd955ac18600754604051610c499190612ca2565b60405180910390a350565b60046020528060005260406000206000915054906101000a900460ff1681565b610c7c6126ae565b600280811115610c8f57610c8e612ddb565b5b600660009054906101000a900460ff166002811115610cb157610cb0612ddb565b5b14610cf1576040517f08c379a0000000000000000000000000000000000000000000000000000000008152600401610ce8906135b9565b60405180910390fd5b600b60003373ffffffffffffffffffffffffffffffffffffffff1673ffffffffffffffffffffffffffffffffffffffff16815260200190815260200160002060030160019054906101000a900460ff16610d80576040517f08c379a0000000000000000000000000000000000000000000000000000000008152600401610d7790613625565b60405180910390fd5b600b60003373ffffffffffffffffffffffffffffffffffffffff1673ffffffffffffffffffffffffffffffffffffffff16815260200190815260200160002060030160169054906101000a900460ff1615610e10576040517f08c379a0000000000000000000000000000000000000000000000000000000008152600401610e0790613691565b60405180910390fd5b6000610e1b336126f4565b9050600260009054906101000a900473ffffffffffffffffffffffffffffffffffffffff1673ffffffffffffffffffffffffffffffffffffffff1663a9059cbb33836040518363ffffffff1660e01b8152600401610e7a929190613408565b6020604051808303816000875af1158015610e99573d6000803e3d6000fd5b505050506040513d601f19601f82011682018060405250810190610ebd91906136dd565b610efc576040517f08c379a0000000000000000000000000000000000000000000000000000000008152600401610ef390613756565b60405180910390fd5b6001600b60003373ffffffffffffffffffffffffffffffffffffffff1673ffffffffffffffffffffffffffffffffffffffff16815260200190815260200160002060030160166101000a81548160ff0219169083151502179055503373ffffffffffffffffffffffffffffffffffffffff167f95681e512bc0fe659e195e06c283eada494316f3d801213e48e7101af92bf77082604051610f9d9190612ca2565b60405180910390a250610fae61277d565b565b610fb86123de565b610fc26000612786565b565b60085481565b60008060009054906101000a900473ffffffffffffffffffffffffffffffffffffffff16905090565b6005818154811061100357600080fd5b906000526020600020016000915090505481565b600c818154811061102757600080fd5b906000526020600020016000915054906101000a900473ffffffffffffffffffffffffffffffffffffffff1681565b6000600580549050905090565b600d818154811061107357600080fd5b90600052602060002090600302016000915090508060000160009054906101000a900473ffffffffffffffffffffffffffffffffffffffff16908060010154908060020154905083565b6110c56123de565b600060028111156110d9576110d8612ddb565b5b600660009054906101000a900460ff1660028111156110fb576110fa612ddb565b5b1461113b576040517f08c379a0000000000000000000000000000000000000000000000000000000008152600401611132906134e1565b60405180910390fd5b6002600c805490501015611184576040517f08c379a000000000000000000000000000000000000000000000000000000000815260040161117b906137c2565b60405180910390fd5b6001600660006101000a81548160ff021916908360028111156111aa576111a9612ddb565b5b02179055507fca7fe1dfc7a1dcd8e9722a9cf62ca0683b54eb3bcf6d35e7ed7ad166dd1551ad60405160405180910390a16111e361284a565b565b6000600c80549050905090565b6111fa6126ae565b600b60003373ffffffffffffffffffffffffffffffffffffffff1673ffffffffffffffffffffffffffffffffffffffff16815260200190815260200160002060030160019054906101000a900460ff161561128a576040517f08c379a00000000000000000000000000000000000000000000000000000000081526004016112819061382e565b60405180910390fd5b6000600281111561129e5761129d612ddb565b5b600660009054906101000a900460ff1660028111156112c0576112bf612ddb565b5b14611300576040517f08c379a00000000000000000000000000000000000000000000000000000000081526004016112f79061389a565b60405180910390fd5b600360009054906101000a900473ffffffffffffffffffffffffffffffffffffffff1673ffffffffffffffffffffffffffffffffffffffff16632ffb937083336040518363ffffffff1660e01b815260040161135d9291906138ba565b602060405180830381865afa15801561137a573d6000803e3d6000fd5b505050506040513d601f19601f8201168201806040525081019061139e91906136dd565b6113dd576040517f08c379a00000000000000000000000000000000000000000000000000000000081526004016113d49061392f565b60405180910390fd5b600260009054906101000a900473ffffffffffffffffffffffffffffffffffffffff1673ffffffffffffffffffffffffffffffffffffffff166323b872dd33306007546040518463ffffffff1660e01b815260040161143e9392919061394f565b6020604051808303816000875af115801561145d573d6000803e3d6000fd5b505050506040513d601f19601f8201168201806040525081019061148191906136dd565b6114c0576040517f08c379a00000000000000000000000000000000000000000000000000000000081526004016114b7906139d2565b60405180910390fd5b600073ffffffffffffffffffffffffffffffffffffffff168173ffffffffffffffffffffffffffffffffffffffff16141580156115495750600b60008273ffffffffffffffffffffffffffffffffffffffff1673ffffffffffffffffffffffffffffffffffffffff16815260200190815260200160002060030160019054906101000a900460ff165b1561171c57600260009054906101000a900473ffffffffffffffffffffffffffffffffffffffff1673ffffffffffffffffffffffffffffffffffffffff1663a9059cbb82600a546040518363ffffffff1660e01b81526004016115ad929190613408565b6020604051808303816000875af11580156115cc573d6000803e3d6000fd5b505050506040513d601f19601f820116820180604052508101906115f091906136dd565b61162f576040517f08c379a000000000000000000000000000000000000000000000000000000000815260040161162690613a3e565b60405180910390fd5b80600b60003373ffffffffffffffffffffffffffffffffffffffff1673ffffffffffffffffffffffffffffffffffffffff16815260200190815260200160002060030160026101000a81548173ffffffffffffffffffffffffffffffffffffffff021916908373ffffffffffffffffffffffffffffffffffffffff1602179055508073ffffffffffffffffffffffffffffffffffffffff167f04b20935b234f45fda390d2df59d92b7bb8bed322d3bc8764e826cfff50007d5600a546040516116f89190612ca2565b60405180910390a2600a54600860008282546117149190613a5e565b925050819055505b600a5460075461172c9190613a5e565b6008600082825461173d91906133d4565b925050819055506040518060e001604052808381526020013373ffffffffffffffffffffffffffffffffffffffff168152602001600081526020016000151581526020016001151581526020018273ffffffffffffffffffffffffffffffffffffffff16815260200160001515815250600b60003373ffffffffffffffffffffffffffffffffffffffff1673ffffffffffffffffffffffffffffffffffffffff1681526020019081526020016000206000820151816000015560208201518160010160006101000a81548173ffffffffffffffffffffffffffffffffffffffff021916908373ffffffffffffffffffffffffffffffffffffffff1602179055506040820151816002015560608201518160030160006101000a81548160ff02191690831515021790555060808201518160030160016101000a81548160ff02191690831515021790555060a08201518160030160026101000a81548173ffffffffffffffffffffffffffffffffffffffff021916908373ffffffffffffffffffffffffffffffffffffffff16021790555060c08201518160030160166101000a81548160ff021916908315150217905550905050600c339080600181540180825580915050600190039060005260206000200160009091909190916101000a81548173ffffffffffffffffffffffffffffffffffffffff021916908373ffffffffffffffffffffffffffffffffffffffff1602179055508073ffffffffffffffffffffffffffffffffffffffff163373ffffffffffffffffffffffffffffffffffffffff16837f9ea5eaf4506fa5c1d698e7d45910976cf39101ed6e97f3e216652cb02152784e60405160405180910390a46119b761277d565b5050565b6119c36126ae565b600b60003373ffffffffffffffffffffffffffffffffffffffff1673ffffffffffffffffffffffffffffffffffffffff16815260200190815260200160002060030160019054906101000a900460ff1615611a53576040517f08c379a0000000000000000000000000000000000000000000000000000000008152600401611a4a9061382e565b60405180910390fd5b60006002811115611a6757611a66612ddb565b5b600660009054906101000a900460ff166002811115611a8957611a88612ddb565b5b14611ac9576040517f08c379a0000000000000000000000000000000000000000000000000000000008152600401611ac09061389a565b60405180910390fd5b6004600083815260200190815260200160002060009054906101000a900460ff16611b29576040517f08c379a0000000000000000000000000000000000000000000000000000000008152600401611b2090613ade565b60405180910390fd5b600360009054906101000a900473ffffffffffffffffffffffffffffffffffffffff1673ffffffffffffffffffffffffffffffffffffffff16632ffb937084336040518363ffffffff1660e01b8152600401611b869291906138ba565b602060405180830381865afa158015611ba3573d6000803e3d6000fd5b505050506040513d601f19601f82011682018060405250810190611bc791906136dd565b611c06576040517f08c379a0000000000000000000000000000000000000000000000000000000008152600401611bfd9061392f565b60405180910390fd5b60006004600084815260200190815260200160002060006101000a81548160ff021916908315150217905550600073ffffffffffffffffffffffffffffffffffffffff168173ffffffffffffffffffffffffffffffffffffffff1614158015611cbb5750600b60008273ffffffffffffffffffffffffffffffffffffffff1673ffffffffffffffffffffffffffffffffffffffff16815260200190815260200160002060030160019054906101000a900460ff165b15611e8e57600260009054906101000a900473ffffffffffffffffffffffffffffffffffffffff1673ffffffffffffffffffffffffffffffffffffffff1663a9059cbb82600a546040518363ffffffff1660e01b8152600401611d1f929190613408565b6020604051808303816000875af1158015611d3e573d6000803e3d6000fd5b505050506040513d601f19601f82011682018060405250810190611d6291906136dd565b611da1576040517f08c379a0000000000000000000000000000000000000000000000000000000008152600401611d9890613a3e565b60405180910390fd5b80600b60003373ffffffffffffffffffffffffffffffffffffffff1673ffffffffffffffffffffffffffffffffffffffff16815260200190815260200160002060030160026101000a81548173ffffffffffffffffffffffffffffffffffffffff021916908373ffffffffffffffffffffffffffffffffffffffff1602179055508073ffffffffffffffffffffffffffffffffffffffff167f04b20935b234f45fda390d2df59d92b7bb8bed322d3bc8764e826cfff50007d5600a54604051611e6a9190612ca2565b60405180910390a2600a5460086000828254611e869190613a5e565b925050819055505b600a54600754611e9e9190613a5e565b60086000828254611eaf91906133d4565b925050819055506040518060e001604052808481526020013373ffffffffffffffffffffffffffffffffffffffff168152602001600081526020016000151581526020016001151581526020018273ffffffffffffffffffffffffffffffffffffffff16815260200160001515815250600b60003373ffffffffffffffffffffffffffffffffffffffff1673ffffffffffffffffffffffffffffffffffffffff1681526020019081526020016000206000820151816000015560208201518160010160006101000a81548173ffffffffffffffffffffffffffffffffffffffff021916908373ffffffffffffffffffffffffffffffffffffffff1602179055506040820151816002015560608201518160030160006101000a81548160ff02191690831515021790555060808201518160030160016101000a81548160ff02191690831515021790555060a08201518160030160026101000a81548173ffffffffffffffffffffffffffffffffffffffff021916908373ffffffffffffffffffffffffffffffffffffffff16021790555060c08201518160030160166101000a81548160ff021916908315150217905550905050600c339080600181540180825580915050600190039060005260206000200160009091909190916101000a81548173ffffffffffffffffffffffffffffffffffffffff021916908373ffffffffffffffffffffffffffffffffffffffff1602179055508073ffffffffffffffffffffffffffffffffffffffff163373ffffffffffffffffffffffffffffffffffffffff16847f9ea5eaf4506fa5c1d698e7d45910976cf39101ed6e97f3e216652cb02152784e60405160405180910390a461212961277d565b505050565b6121366126ae565b600260009054906101000a900473ffffffffffffffffffffffffffffffffffffffff1673ffffffffffffffffffffffffffffffffffffffff166323b872dd3330846040518463ffffffff1660e01b81526004016121959392919061394f565b6020604051808303816000875af11580156121b4573d6000803e3d6000fd5b505050506040513d601f19601f820116820180604052508101906121d891906136dd565b612217576040517f08c379a000000000000000000000000000000000000000000000000000000000815260040161220e90613756565b60405180910390fd5b806008600082825461222991906133d4565b925050819055503373ffffffffffffffffffffffffffffffffffffffff167fd3da04b9295b0265da4cd8d1d9ea4f3bb84775e17288a007301f7193865b1818826040516122769190612ca2565b60405180910390a261228661277d565b50565b600b6020528060005260406000206000915090508060000154908060010160009054906101000a900473ffffffffffffffffffffffffffffffffffffffff16908060020154908060030160009054906101000a900460ff16908060030160019054906101000a900460ff16908060030160029054906101000a900473ffffffffffffffffffffffffffffffffffffffff16908060030160169054906101000a900460ff16905087565b61233a6123de565b600073ffffffffffffffffffffffffffffffffffffffff168173ffffffffffffffffffffffffffffffffffffffff16036123ac5760006040517f1e4fbdf70000000000000000000000000000000000000000000000000000000081526004016123a391906130e6565b60405180910390fd5b6123b581612786565b50565b600360009054906101000a900473ffffffffffffffffffffffffffffffffffffffff1681565b6123e6612b30565b73ffffffffffffffffffffffffffffffffffffffff16612404610fca565b73ffffffffffffffffffffffffffffffffffffffff161461246357612427612b30565b6040517f118cdaa700000000000000000000000000000000000000000000000000000000815260040161245a91906130e6565b60405180910390fd5b565b600d60006124739190612c17565b60005b600c805490508110156126ab57600d6040518060600160405280600c84815481106124a4576124a36132f9565b5b9060005260206000200160009054906101000a900473ffffffffffffffffffffffffffffffffffffffff1673ffffffffffffffffffffffffffffffffffffffff168152602001600b6000600c8681548110612502576125016132f9565b5b9060005260206000200160009054906101000a900473ffffffffffffffffffffffffffffffffffffffff1673ffffffffffffffffffffffffffffffffffffffff1673ffffffffffffffffffffffffffffffffffffffff168152602001908152602001600020600201548152602001600b6000600c8681548110612588576125876132f9565b5b9060005260206000200160009054906101000a900473ffffffffffffffffffffffffffffffffffffffff1673ffffffffffffffffffffffffffffffffffffffff1673ffffffffffffffffffffffffffffffffffffffff16815260200190815260200160002060030160009054906101000a900460ff1661260957600161260c565b60005b60ff16815250908060018154018082558091505060019003906000526020600020906003020160009091909190915060008201518160000160006101000a81548173ffffffffffffffffffffffffffffffffffffffff021916908373ffffffffffffffffffffffffffffffffffffffff1602179055506020820151816001015560408201518160020155505080806126a390613afe565b915050612476565b50565b6002600154036126ea576040517f3ee5aeb500000000000000000000000000000000000000000000000000000000815260040160405180910390fd5b6002600181905550565b6000806126ff612b38565b90506000816008546127119190613b75565b90506000612710600b60008773ffffffffffffffffffffffffffffffffffffffff1673ffffffffffffffffffffffffffffffffffffffff168152602001908152602001600020600201546127659190613ba6565b9050808261277391906133d4565b9350505050919050565b60018081905550565b60008060009054906101000a900473ffffffffffffffffffffffffffffffffffffffff169050816000806101000a81548173ffffffffffffffffffffffffffffffffffffffff021916908373ffffffffffffffffffffffffffffffffffffffff1602179055508173ffffffffffffffffffffffffffffffffffffffff168173ffffffffffffffffffffffffffffffffffffffff167f8be0079c531659141344cd1fd0a4f28419497f9722a3daafe3b4186f6b6457e060405160405180910390a35050565b60005b6001600c8054905061285f9190613a5e565b811015612b2d57600e6040518060c00160405280600c8481548110612887576128866132f9565b5b9060005260206000200160009054906101000a900473ffffffffffffffffffffffffffffffffffffffff1673ffffffffffffffffffffffffffffffffffffffff168152602001600c6001856128dc91906133d4565b815481106128ed576128ec6132f9565b5b9060005260206000200160009054906101000a900473ffffffffffffffffffffffffffffffffffffffff1673ffffffffffffffffffffffffffffffffffffffff16815260200160008152602001600081526020016000151581526020016000815250908060018154018082558091505060019003906000526020600020906006020160009091909190915060008201518160000160006101000a81548173ffffffffffffffffffffffffffffffffffffffff021916908373ffffffffffffffffffffffffffffffffffffffff16021790555060208201518160010160006101000a81548173ffffffffffffffffffffffffffffffffffffffff021916908373ffffffffffffffffffffffffffffffffffffffff160217905550604082015181600201556060820151816003015560808201518160040160006101000a81548160ff02191690831515021790555060a0820151816005015550506001600e80549050612a589190613a5e565b7fe08af3491ff5da4a802782054d74abe364c01b6983872e2e93e728330b03a450600c8381548110612a8d57612a8c6132f9565b5b9060005260206000200160009054906101000a900473ffffffffffffffffffffffffffffffffffffffff16600c600185612ac791906133d4565b81548110612ad857612ad76132f9565b5b9060005260206000200160009054906101000a900473ffffffffffffffffffffffffffffffffffffffff16604051612b11929190613be8565b60405180910390a2600281612b2691906133d4565b905061284d565b50565b600033905090565b60008060005b600c80549050811015612bff57600b6000600c8381548110612b6357612b626132f9565b5b9060005260206000200160009054906101000a900473ffffffffffffffffffffffffffffffffffffffff1673ffffffffffffffffffffffffffffffffffffffff1673ffffffffffffffffffffffffffffffffffffffff16815260200190815260200160002060030160009054906101000a900460ff16612bec578180612be890613afe565b9250505b8080612bf790613afe565b915050612b3e565b5060008111612c0f576001612c11565b805b91505090565b5080546000825560030290600052602060002090810190612c389190612c3b565b50565b5b80821115612c8557600080820160006101000a81549073ffffffffffffffffffffffffffffffffffffffff02191690556001820160009055600282016000905550600301612c3c565b5090565b6000819050919050565b612c9c81612c89565b82525050565b6000602082019050612cb76000830184612c93565b92915050565b600073ffffffffffffffffffffffffffffffffffffffff82169050919050565b6000819050919050565b6000612d02612cfd612cf884612cbd565b612cdd565b612cbd565b9050919050565b6000612d1482612ce7565b9050919050565b6000612d2682612d09565b9050919050565b612d3681612d1b565b82525050565b6000602082019050612d516000830184612d2d565b92915050565b600080fd5b612d6581612c89565b8114612d7057600080fd5b50565b600081359050612d8281612d5c565b92915050565b600080600060608486031215612da157612da0612d57565b5b6000612daf86828701612d73565b9350506020612dc086828701612d73565b9250506040612dd186828701612d73565b9150509250925092565b7f4e487b7100000000000000000000000000000000000000000000000000000000600052602160045260246000fd5b60038110612e1b57612e1a612ddb565b5b50565b6000819050612e2c82612e0a565b919050565b6000612e3c82612e1e565b9050919050565b612e4c81612e31565b82525050565b6000602082019050612e676000830184612e43565b92915050565b600060208284031215612e8357612e82612d57565b5b6000612e9184828501612d73565b91505092915050565b6000612ea582612cbd565b9050919050565b612eb581612e9a565b82525050565b60008115159050919050565b612ed081612ebb565b82525050565b600060c082019050612eeb6000830189612eac565b612ef86020830188612eac565b612f056040830187612c93565b612f126060830186612c93565b612f1f6080830185612ec7565b612f2c60a0830184612c93565b979650505050505050565b600081519050919050565b600082825260208201905092915050565b6000819050602082019050919050565b612f6c81612e9a565b82525050565b612f7b81612c89565b82525050565b606082016000820151612f976000850182612f63565b506020820151612faa6020850182612f72565b506040820151612fbd6040850182612f72565b50505050565b6000612fcf8383612f81565b60608301905092915050565b6000602082019050919050565b6000612ff382612f37565b612ffd8185612f42565b935061300883612f53565b8060005b838110156130395781516130208882612fc3565b975061302b83612fdb565b92505060018101905061300c565b5085935050505092915050565b600060208201905081810360008301526130608184612fe8565b905092915050565b6000819050919050565b61307b81613068565b811461308657600080fd5b50565b60008135905061309881613072565b92915050565b6000602082840312156130b4576130b3612d57565b5b60006130c284828501613089565b91505092915050565b60006020820190506130e06000830184612ec7565b92915050565b60006020820190506130fb6000830184612eac565b92915050565b61310a81613068565b82525050565b60006020820190506131256000830184613101565b92915050565b60006060820190506131406000830186612eac565b61314d6020830185612c93565b61315a6040830184612c93565b949350505050565b61316b81612e9a565b811461317657600080fd5b50565b60008135905061318881613162565b92915050565b600080604083850312156131a5576131a4612d57565b5b60006131b385828601613089565b92505060206131c485828601613179565b9150509250929050565b6000806000606084860312156131e7576131e6612d57565b5b60006131f586828701613089565b935050602061320686828701613089565b925050604061321786828701613179565b9150509250925092565b60006020828403121561323757613236612d57565b5b600061324584828501613179565b91505092915050565b600060e082019050613263600083018a613101565b6132706020830189612eac565b61327d6040830188612c93565b61328a6060830187612ec7565b6132976080830186612ec7565b6132a460a0830185612eac565b6132b160c0830184612ec7565b98975050505050505050565b60006132c882612d09565b9050919050565b6132d8816132bd565b82525050565b60006020820190506132f360008301846132cf565b92915050565b7f4e487b7100000000000000000000000000000000000000000000000000000000600052603260045260246000fd5b600082825260208201905092915050565b7f4d6174636820616c726561647920636f6d706c65746564000000000000000000600082015250565b600061336f601783613328565b915061337a82613339565b602082019050919050565b6000602082019050818103600083015261339e81613362565b9050919050565b7f4e487b7100000000000000000000000000000000000000000000000000000000600052601160045260246000fd5b60006133df82612c89565b91506133ea83612c89565b9250828201905080821115613402576134016133a5565b5b92915050565b600060408201905061341d6000830185612eac565b61342a6020830184612c93565b9392505050565b6000819050919050565b600061345661345161344c84613431565b612cdd565b612c89565b9050919050565b6134668161343b565b82525050565b60006040820190506134816000830185612eac565b61348e602083018461345d565b9392505050565b7f496e76616c696420737461747573000000000000000000000000000000000000600082015250565b60006134cb600e83613328565b91506134d682613495565b602082019050919050565b600060208201905081810360008301526134fa816134be565b9050919050565b7f5061796d656e7420616c7265616479207265636f726465640000000000000000600082015250565b6000613537601883613328565b915061354282613501565b602082019050919050565b600060208201905081810360008301526135668161352a565b9050919050565b7f546f75726e616d656e74206e6f7420656e646564000000000000000000000000600082015250565b60006135a3601483613328565b91506135ae8261356d565b602082019050919050565b600060208201905081810360008301526135d281613596565b9050919050565b7f4e6f742072656769737465726564000000000000000000000000000000000000600082015250565b600061360f600e83613328565b915061361a826135d9565b602082019050919050565b6000602082019050818103600083015261363e81613602565b9050919050565b7f416c726561647920636c61696d65640000000000000000000000000000000000600082015250565b600061367b600f83613328565b915061368682613645565b602082019050919050565b600060208201905081810360008301526136aa8161366e565b9050919050565b6136ba81612ebb565b81146136c557600080fd5b50565b6000815190506136d7816136b1565b92915050565b6000602082840312156136f3576136f2612d57565b5b6000613701848285016136c8565b91505092915050565b7f5472616e73666572206661696c65640000000000000000000000000000000000600082015250565b6000613740600f83613328565b915061374b8261370a565b602082019050919050565b6000602082019050818103600083015261376f81613733565b9050919050565b7f4e65656420322b20706c61796572730000000000000000000000000000000000600082015250565b60006137ac600f83613328565b91506137b782613776565b602082019050919050565b600060208201905081810360008301526137db8161379f565b9050919050565b7f416c726561647920726567697374657265640000000000000000000000000000600082015250565b6000613818601283613328565b9150613823826137e2565b602082019050919050565b600060208201905081810360008301526138478161380b565b9050919050565b7f546f75726e616d656e7420737461727465640000000000000000000000000000600082015250565b6000613884601283613328565b915061388f8261384e565b602082019050919050565b600060208201905081810360008301526138b381613877565b9050919050565b60006040820190506138cf6000830185613101565b6138dc6020830184612eac565b9392505050565b7f4167656e74206e6f742076657269666965640000000000000000000000000000600082015250565b6000613919601283613328565b9150613924826138e3565b602082019050919050565b600060208201905081810360008301526139488161390c565b9050919050565b60006060820190506139646000830186612eac565b6139716020830185612eac565b61397e6040830184612c93565b949350505050565b7f456e74727920666565206661696c656400000000000000000000000000000000600082015250565b60006139bc601083613328565b91506139c782613986565b602082019050919050565b600060208201905081810360008301526139eb816139af565b9050919050565b7f526566657272616c207472616e73666572206661696c65640000000000000000600082015250565b6000613a28601883613328565b9150613a33826139f2565b602082019050919050565b60006020820190508181036000830152613a5781613a1b565b9050919050565b6000613a6982612c89565b9150613a7483612c89565b9250828203905081811115613a8c57613a8b6133a5565b5b92915050565b7f78343032207061796d656e74206e6f7420766572696669656400000000000000600082015250565b6000613ac8601983613328565b9150613ad382613a92565b602082019050919050565b60006020820190508181036000830152613af781613abb565b9050919050565b6000613b0982612c89565b91507fffffffffffffffffffffffffffffffffffffffffffffffffffffffffffffffff8203613b3b57613b3a6133a5565b5b600182019050919050565b7f4e487b7100000000000000000000000000000000000000000000000000000000600052601260045260246000fd5b6000613b8082612c89565b9150613b8b83612c89565b925082613b9b57613b9a613b46565b5b828204905092915050565b6000613bb182612c89565b9150613bbc83612c89565b9250828202613bca81612c89565b91508282048414831517613be157613be06133a5565b5b5092915050565b6000604082019050613bfd6000830185612eac565b613c0a6020830184612eac565b939250505056fea2646970667358221220964a11ba5d2af2798e8fab9bfbc39778a687381a523276bcba0cdbc9f600715164736f6c63430008140033",
  "linkReferences": {},
  "deployedLinkReferences": {}
}