{
  "_format": "hh-sol-artifact-1",
  "contractName": "ClawRoyaleSmart",
  "sourceName": "contracts/ClawRoyaleSmart.sol",
  "abi": [
    {
      "inputs": [
        {
          "internalType": "address",
          "name": "_usdcToken",
          "type": "address"
        }
      ],
      "stateMutability": "nonpayable",
      "type": "constructor"
    },
    {
      "inputs": [
        {
          "internalType": "address",
          "name": "owner",
          "type": "address"
        }
      ],
      "name": "OwnableInvalidOwner",
      "type": "error"
    },
    {
      "inputs": [
        {
          "internalType": "address",
          "name": "account",
          "type": "address"
        }
      ],
      "name": "OwnableUnauthorizedAccount",
      "type": "error"
    },
    {
      "inputs": [],
      "name": "ReentrancyGuardReentrantCall",
      "type": "error"
    },
    {
      "anonymous": false,
      "inputs": [
        {
          "indexed": true,
          "internalType": "address",
          "name": "account",
          "type": "address"
        },
        {
          "indexed": false,
          "internalType": "uint256",
          "name": "maxBet",
          "type": "uint256"
        },
        {
          "indexed": false,
          "internalType": "uint256",
          "name": "expiry",
          "type": "uint256"
        }
      ],
      "name": "DelegationConfigured",
      "type": "event"
    },
    {
      "anonymous": false,
      "inputs": [
        {
          "indexed": true,
          "internalType": "address",
          "name": "account",
          "type": "address"
        }
      ],
      "name": "DelegationRevoked",
      "type": "event"
    },
    {
      "anonymous": false,
      "inputs": [
        {
          "indexed": true,
          "internalType": "address",
          "name": "account",
          "type": "address"
        },
        {
          "indexed": false,
          "internalType": "uint256",
          "name": "estimatedGas",
          "type": "uint256"
        }
      ],
      "name": "GasSponsored",
      "type": "event"
    },
    {
      "anonymous": false,
      "inputs": [
        {
          "indexed": true,
          "internalType": "address",
          "name": "previousOwner",
          "type": "address"
        },
        {
          "indexed": true,
          "internalType": "address",
          "name": "newOwner",
          "type": "address"
        }
      ],
      "name": "OwnershipTransferred",
      "type": "event"
    },
    {
      "anonymous": false,
      "inputs": [
        {
          "indexed": true,
          "internalType": "address",
          "name": "smartAccount",
          "type": "address"
        },
        {
          "indexed": false,
          "internalType": "uint256",
          "name": "amount",
          "type": "uint256"
        }
      ],
      "name": "PlayerRegistered",
      "type": "event"
    },
    {
      "anonymous": false,
      "inputs": [
        {
          "indexed": true,
          "internalType": "address",
          "name": "player",
          "type": "address"
        },
        {
          "indexed": false,
          "internalType": "uint256",
          "name": "amount",
          "type": "uint256"
        }
      ],
      "name": "PrizeClaimed",
      "type": "event"
    },
    {
      "anonymous": false,
      "inputs": [
        {
          "indexed": true,
          "internalType": "address",
          "name": "referrer",
          "type": "address"
        },
        {
          "indexed": false,
          "internalType": "uint256",
          "name": "amount",
          "type": "uint256"
        }
      ],
      "name": "ReferralRewardPaid",
      "type": "event"
    },
    {
      "anonymous": false,
      "inputs": [
        {
          "indexed": true,
          "internalType": "address",
          "name": "smartAccount",
          "type": "address"
        },
        {
          "indexed": true,
          "internalType": "address",
          "name": "delegate",
          "type": "address"
        }
      ],
      "name": "SmartAccountRegistered",
      "type": "event"
    },
    {
      "inputs": [
        {
          "internalType": "address[]",
          "name": "_players",
          "type": "address[]"
        },
        {
          "internalType": "uint256[]",
          "name": "_amounts",
          "type": "uint256[]"
        }
      ],
      "name": "batchClaimPrizes",
      "outputs": [],
      "stateMutability": "nonpayable",
      "type": "function"
    },
    {
      "inputs": [
        {
          "internalType": "uint256",
          "name": "_amount",
          "type": "uint256"
        }
      ],
      "name": "claimPrize",
      "outputs": [],
      "stateMutability": "nonpayable",
      "type": "function"
    },
    {
      "inputs": [],
      "name": "completeTournament",
      "outputs": [],
      "stateMutability": "nonpayable",
      "type": "function"
    },
    {
      "inputs": [
        {
          "internalType": "uint256",
          "name": "_maxBetAmount",
          "type": "uint256"
        },
        {
          "internalType": "uint256",
          "name": "_durationSeconds",
          "type": "uint256"
        }
      ],
      "name": "configureDelegation",
      "outputs": [],
      "stateMutability": "nonpayable",
      "type": "function"
    },
    {
      "inputs": [
        {
          "internalType": "address",
          "name": "",
          "type": "address"
        }
      ],
      "name": "delegationConfigs",
      "outputs": [
        {
          "internalType": "bool",
          "name": "hasDelegation",
          "type": "bool"
        },
        {
          "internalType": "uint256",
          "name": "maxBetAmount",
          "type": "uint256"
        },
        {
          "internalType": "uint256",
          "name": "delegationExpiry",
          "type": "uint256"
        },
        {
          "internalType": "address",
          "name": "delegatee",
          "type": "address"
        }
      ],
      "stateMutability": "view",
      "type": "function"
    },
    {
      "inputs": [],
      "name": "entryFee",
      "outputs": [
        {
          "internalType": "uint256",
          "name": "",
          "type": "uint256"
        }
      ],
      "stateMutability": "view",
      "type": "function"
    },
    {
      "inputs": [
        {
          "internalType": "address",
          "name": "_target",
          "type": "address"
        },
        {
          "internalType": "bytes",
          "name": "_calldata",
          "type": "bytes"
        }
      ],
      "name": "executeDelegatedBet",
      "outputs": [],
      "stateMutability": "nonpayable",
      "type": "function"
    },
    {
      "inputs": [
        {
          "internalType": "uint256",
          "name": "_amount",
          "type": "uint256"
        }
      ],
      "name": "fundPrizePool",
      "outputs": [],
      "stateMutability": "nonpayable",
      "type": "function"
    },
    {
      "inputs": [
        {
          "internalType": "uint256",
          "name": "_amount",
          "type": "uint256"
        }
      ],
      "name": "fundPrizePoolDelegated",
      "outputs": [],
      "stateMutability": "nonpayable",
      "type": "function"
    },
    {
      "inputs": [
        {
          "internalType": "address",
          "name": "",
          "type": "address"
        }
      ],
      "name": "gasSponsored",
      "outputs": [
        {
          "internalType": "bool",
          "name": "",
          "type": "bool"
        }
      ],
      "stateMutability": "view",
      "type": "function"
    },
    {
      "inputs": [
        {
          "internalType": "address",
          "name": "_account",
          "type": "address"
        }
      ],
      "name": "getDelegationLimit",
      "outputs": [
        {
          "internalType": "uint256",
          "name": "",
          "type": "uint256"
        }
      ],
      "stateMutability": "view",
      "type": "function"
    },
    {
      "inputs": [],
      "name": "getPlayerCount",
      "outputs": [
        {
          "internalType": "uint256",
          "name": "",
          "type": "uint256"
        }
      ],
      "stateMutability": "view",
      "type": "function"
    },
    {
      "inputs": [
        {
          "internalType": "address",
          "name": "_account",
          "type": "address"
        }
      ],
      "name": "hasValidDelegation",
      "outputs": [
        {
          "internalType": "bool",
          "name": "",
          "type": "bool"
        }
      ],
      "stateMutability": "view",
      "type": "function"
    },
    {
      "inputs": [
        {
          "internalType": "address",
          "name": "",
          "type": "address"
        }
      ],
      "name": "isSmartAccount",
      "outputs": [
        {
          "internalType": "bool",
          "name": "",
          "type": "bool"
        }
      ],
      "stateMutability": "view",
      "type": "function"
    },
    {
      "inputs": [],
      "name": "owner",
      "outputs": [
        {
          "internalType": "address",
          "name": "",
          "type": "address"
        }
      ],
      "stateMutability": "view",
      "type": "function"
    },
    {
      "inputs": [],
      "name": "platformFee",
      "outputs": [
        {
          "internalType": "uint256",
          "name": "",
          "type": "uint256"
        }
      ],
      "stateMutability": "view",
      "type": "function"
    },
    {
      "inputs": [
        {
          "internalType": "uint256",
          "name": "",
          "type": "uint256"
        }
      ],
      "name": "playerList",
      "outputs": [
        {
          "internalType": "address",
          "name": "",
          "type": "address"
        }
      ],
      "stateMutability": "view",
      "type": "function"
    },
    {
      "inputs": [],
      "name": "prizePool",
      "outputs": [
        {
          "internalType": "uint256",
          "name": "",
          "type": "uint256"
        }
      ],
      "stateMutability": "view",
      "type": "function"
    },
    {
      "inputs": [],
      "name": "recordGasSponsorship",
      "outputs": [],
      "stateMutability": "nonpayable",
      "type": "function"
    },
    {
      "inputs": [],
      "name": "referralReward",
      "outputs": [
        {
          "internalType": "uint256",
          "name": "",
          "type": "uint256"
        }
      ],
      "stateMutability": "view",
      "type": "function"
    },
    {
      "inputs": [
        {
          "internalType": "bytes32",
          "name": "_agentId",
          "type": "bytes32"
        },
        {
          "internalType": "uint256",
          "name": "_betAmount",
          "type": "uint256"
        },
        {
          "internalType": "address",
          "name": "_referrer",
          "type": "address"
        }
      ],
      "name": "registerAndBet",
      "outputs": [],
      "stateMutability": "nonpayable",
      "type": "function"
    },
    {
      "inputs": [
        {
          "internalType": "bytes32",
          "name": "_agentId",
          "type": "bytes32"
        },
        {
          "internalType": "address",
          "name": "_referrer",
          "type": "address"
        },
        {
          "internalType": "bytes",
          "name": "_delegate",
          "type": "bytes"
        }
      ],
      "name": "registerSmart",
      "outputs": [],
      "stateMutability": "nonpayable",
      "type": "function"
    },
    {
      "inputs": [
        {
          "internalType": "address",
          "name": "",
          "type": "address"
        }
      ],
      "name": "registeredPlayers",
      "outputs": [
        {
          "internalType": "bool",
          "name": "",
          "type": "bool"
        }
      ],
      "stateMutability": "view",
      "type": "function"
    },
    {
      "inputs": [],
      "name": "renounceOwnership",
      "outputs": [],
      "stateMutability": "nonpayable",
      "type": "function"
    },
    {
      "inputs": [],
      "name": "revokeDelegation",
      "outputs": [],
      "stateMutability": "nonpayable",
      "type": "function"
    },
    {
      "inputs": [],
      "name": "startTournament",
      "outputs": [],
      "stateMutability": "nonpayable",
      "type": "function"
    },
    {
      "inputs": [],
      "name": "status",
      "outputs": [
        {
          "internalType": "enum ClawRoyaleSmart.TournamentStatus",
          "name": "",
          "type": "uint8"
        }
      ],
      "stateMutability": "view",
      "type": "function"
    },
    {
      "inputs": [
        {
          "internalType": "address",
          "name": "newOwner",
          "type": "address"
        }
      ],
      "name": "transferOwnership",
      "outputs": [],
      "stateMutability": "nonpayable",
      "type": "function"
    },
    {
      "inputs": [],
      "name": "usdcToken",
      "outputs": [
        {
          "internalType": "contract IERC20",
          "name": "",
          "type": "address"
        }
      ],
      "stateMutability": "view",
      "type": "function"
    }
  ],
  "bytecode": "0x6080604052624c4b4060035560006005556207a1206006553480156200002457600080fd5b5060405162003b0538038062003b0583398181016040528101906200004a91906200027d565b33600073ffffffffffffffffffffffffffffffffffffffff168173ffffffffffffffffffffffffffffffffffffffff1603620000c05760006040517f1e4fbdf7000000000000000000000000000000000000000000000000000000008152600401620000b79190620002c0565b60405180910390fd5b620000d1816200014f60201b60201c565b506001808190555080600260006101000a81548173ffffffffffffffffffffffffffffffffffffffff021916908373ffffffffffffffffffffffffffffffffffffffff1602179055506000600c60006101000a81548160ff02191690836002811115620001435762000142620002dd565b5b0217905550506200030c565b60008060009054906101000a900473ffffffffffffffffffffffffffffffffffffffff169050816000806101000a81548173ffffffffffffffffffffffffffffffffffffffff021916908373ffffffffffffffffffffffffffffffffffffffff1602179055508173ffffffffffffffffffffffffffffffffffffffff168173ffffffffffffffffffffffffffffffffffffffff167f8be0079c531659141344cd1fd0a4f28419497f9722a3daafe3b4186f6b6457e060405160405180910390a35050565b600080fd5b600073ffffffffffffffffffffffffffffffffffffffff82169050919050565b6000620002458262000218565b9050919050565b620002578162000238565b81146200026357600080fd5b50565b60008151905062000277816200024c565b92915050565b60006020828403121562000296576200029562000213565b5b6000620002a68482850162000266565b91505092915050565b620002ba8162000238565b82525050565b6000602082019050620002d76000830184620002af565b92915050565b7f4e487b7100000000000000000000000000000000000000000000000000000000600052602160045260246000fd5b6137e9806200031c6000396000f3fe608060405234801561001057600080fd5b50600436106101cf5760003560e01c8063719ce73e11610104578063bf559d11116100a2578063e0bcea8d11610071578063e0bcea8d146104c1578063e9c50c38146104dd578063f2fde38b1461050d578063f3798fa914610529576101cf565b8063bf559d111461044d578063c2e5220614610457578063cbf0af9514610475578063d7098154146104a5576101cf565b806397ed125d116100de57806397ed125d146103db5780639d25d63b146103f7578063a4d3180514610413578063ae6d90731461041d576101cf565b8063719ce73e1461036c5780637a06392c1461038a5780638da5cb5b146103bd576101cf565b8063419f8910116101715780634d6836741161014b5780634d683674146102f85780635a3e16f4146103165780635e07a6e614610332578063715018a614610362576101cf565b8063419f89101461027c5780634352110f146102ac5780634bafce22146102c8576101cf565b80632468c866116101ad5780632468c8661461022e57806326232a2e1461024a5780632cbe0dc5146102685780632dc67e2d14610272576101cf565b8063072ea61c146101d457806311eac855146101f2578063200d2ed214610210575b600080fd5b6101dc610545565b6040516101e991906128db565b60405180910390f35b6101fa61054b565b6040516102079190612975565b60405180910390f35b610218610571565b6040516102259190612a07565b60405180910390f35b61024860048036038101906102439190612ae7565b610584565b005b61025261086c565b60405161025f91906128db565b60405180910390f35b610270610872565b005b61027a61091d565b005b61029660048036038101906102919190612ba6565b6109d0565b6040516102a391906128db565b60405180910390f35b6102c660048036038101906102c19190612c5f565b610ad5565b005b6102e260048036038101906102dd9190612ba6565b6111a9565b6040516102ef9190612cee565b60405180910390f35b6103006111c9565b60405161030d91906128db565b60405180910390f35b610330600480360381019061032b9190612d09565b6111cf565b005b61034c60048036038101906103479190612ba6565b61147c565b6040516103599190612cee565b60405180910390f35b61036a61149c565b005b6103746114b0565b60405161038191906128db565b60405180910390f35b6103a4600480360381019061039f9190612ba6565b6114b6565b6040516103b49493929190612d78565b60405180910390f35b6103c5611513565b6040516103d29190612dbd565b60405180910390f35b6103f560048036038101906103f09190612e04565b61153c565b005b610411600480360381019061040c9190612e31565b6117ee565b005b61041b611eb9565b005b61043760048036038101906104329190612e04565b611f8b565b6040516104449190612dbd565b60405180910390f35b610455611fca565b005b61045f6120be565b60405161046c91906128db565b60405180910390f35b61048f600480360381019061048a9190612ba6565b6120cb565b60405161049c9190612cee565b60405180910390f35b6104bf60048036038101906104ba9190612e04565b6121bb565b005b6104db60048036038101906104d69190612e04565b6123fc565b005b6104f760048036038101906104f29190612ba6565b612509565b6040516105049190612cee565b60405180910390f35b61052760048036038101906105229190612ba6565b612529565b005b610543600480360381019061053e9190612e84565b6125af565b005b60035481565b600260009054906101000a900473ffffffffffffffffffffffffffffffffffffffff1681565b600c60009054906101000a900460ff1681565b61058c612720565b6105946127a7565b8181905084849050146105dc576040517f08c379a00000000000000000000000000000000000000000000000000000000081526004016105d390612f21565b60405180910390fd5b60005b8484905081101561085d576008600086868481811061060157610600612f41565b5b90506020020160208101906106169190612ba6565b73ffffffffffffffffffffffffffffffffffffffff1673ffffffffffffffffffffffffffffffffffffffff16815260200190815260200160002060009054906101000a900460ff1661069d576040517f08c379a000000000000000000000000000000000000000000000000000000000815260040161069490612fbc565b60405180910390fd5b600260009054906101000a900473ffffffffffffffffffffffffffffffffffffffff1673ffffffffffffffffffffffffffffffffffffffff1663a9059cbb8686848181106106ee576106ed612f41565b5b90506020020160208101906107039190612ba6565b85858581811061071657610715612f41565b5b905060200201356040518363ffffffff1660e01b815260040161073a929190612fdc565b6020604051808303816000875af1158015610759573d6000803e3d6000fd5b505050506040513d601f19601f8201168201806040525081019061077d9190613031565b6107bc576040517f08c379a00000000000000000000000000000000000000000000000000000000081526004016107b3906130aa565b60405180910390fd5b8484828181106107cf576107ce612f41565b5b90506020020160208101906107e49190612ba6565b73ffffffffffffffffffffffffffffffffffffffff167f95681e512bc0fe659e195e06c283eada494316f3d801213e48e7101af92bf77084848481811061082e5761082d612f41565b5b9050602002013560405161084291906128db565b60405180910390a28080610855906130f9565b9150506105df565b506108666127ed565b50505050565b60055481565b61087a612720565b6001600281111561088e5761088d612990565b5b600c60009054906101000a900460ff1660028111156108b0576108af612990565b5b146108f0576040517f08c379a00000000000000000000000000000000000000000000000000000000081526004016108e79061318d565b60405180910390fd5b6002600c60006101000a81548160ff0219169083600281111561091657610915612990565b5b0217905550565b6001600b60003373ffffffffffffffffffffffffffffffffffffffff1673ffffffffffffffffffffffffffffffffffffffff16815260200190815260200160002060006101000a81548160ff0219169083151502179055503373ffffffffffffffffffffffffffffffffffffffff167f2f5b7da0b8502c9a04f1c60a92a12cc859cb3cefb8951253e2f1c0df6c65d28d5a3a6109b991906131ad565b6040516109c691906128db565b60405180910390a2565b600080600a60008473ffffffffffffffffffffffffffffffffffffffff1673ffffffffffffffffffffffffffffffffffffffff1681526020019081526020016000206040518060800160405290816000820160009054906101000a900460ff1615151515815260200160018201548152602001600282015481526020016003820160009054906101000a900473ffffffffffffffffffffffffffffffffffffffff1673ffffffffffffffffffffffffffffffffffffffff1673ffffffffffffffffffffffffffffffffffffffff1681525050905080600001518015610ab85750806040015142105b15610aca578060200151915050610ad0565b60009150505b919050565b610add6127a7565b600860003373ffffffffffffffffffffffffffffffffffffffff1673ffffffffffffffffffffffffffffffffffffffff16815260200190815260200160002060009054906101000a900460ff1615610b6a576040517f08c379a0000000000000000000000000000000000000000000000000000000008152600401610b619061323b565b60405180910390fd5b60006002811115610b7e57610b7d612990565b5b600c60009054906101000a900460ff166002811115610ba057610b9f612990565b5b14610be0576040517f08c379a0000000000000000000000000000000000000000000000000000000008152600401610bd7906132a7565b60405180910390fd5b6001600760003373ffffffffffffffffffffffffffffffffffffffff1673ffffffffffffffffffffffffffffffffffffffff16815260200190815260200160002060006101000a81548160ff0219169083151502179055506000828290501115610dad576000808383810190610c569190612e84565b9150915042811115610daa5760405180608001604052806001151581526020018381526020018281526020013073ffffffffffffffffffffffffffffffffffffffff16815250600a60003373ffffffffffffffffffffffffffffffffffffffff1673ffffffffffffffffffffffffffffffffffffffff16815260200190815260200160002060008201518160000160006101000a81548160ff021916908315150217905550602082015181600101556040820151816002015560608201518160030160006101000a81548173ffffffffffffffffffffffffffffffffffffffff021916908373ffffffffffffffffffffffffffffffffffffffff1602179055509050503373ffffffffffffffffffffffffffffffffffffffff167f748bf350abb9a0df801f89c4e78cd9f1589c9aa2c24400014d156b7ff21ad5748383604051610da19291906132c7565b60405180910390a25b50505b600260009054906101000a900473ffffffffffffffffffffffffffffffffffffffff1673ffffffffffffffffffffffffffffffffffffffff166323b872dd33306003546040518463ffffffff1660e01b8152600401610e0e939291906132f0565b6020604051808303816000875af1158015610e2d573d6000803e3d6000fd5b505050506040513d601f19601f82011682018060405250810190610e519190613031565b610e90576040517f08c379a0000000000000000000000000000000000000000000000000000000008152600401610e8790613373565b60405180910390fd5b600073ffffffffffffffffffffffffffffffffffffffff168373ffffffffffffffffffffffffffffffffffffffff1614158015610f165750600860008473ffffffffffffffffffffffffffffffffffffffff1673ffffffffffffffffffffffffffffffffffffffff16815260200190815260200160002060009054906101000a900460ff165b1561106857600260009054906101000a900473ffffffffffffffffffffffffffffffffffffffff1673ffffffffffffffffffffffffffffffffffffffff1663a9059cbb846006546040518363ffffffff1660e01b8152600401610f7a929190612fdc565b6020604051808303816000875af1158015610f99573d6000803e3d6000fd5b505050506040513d601f19601f82011682018060405250810190610fbd9190613031565b610ffc576040517f08c379a0000000000000000000000000000000000000000000000000000000008152600401610ff3906133df565b60405180910390fd5b6006546004600082825461101091906133ff565b925050819055508273ffffffffffffffffffffffffffffffffffffffff167f04b20935b234f45fda390d2df59d92b7bb8bed322d3bc8764e826cfff50007d560065460405161105f91906128db565b60405180910390a25b60065460035461107891906133ff565b600460008282546110899190613433565b925050819055506001600860003373ffffffffffffffffffffffffffffffffffffffff1673ffffffffffffffffffffffffffffffffffffffff16815260200190815260200160002060006101000a81548160ff0219169083151502179055506009339080600181540180825580915050600190039060005260206000200160009091909190916101000a81548173ffffffffffffffffffffffffffffffffffffffff021916908373ffffffffffffffffffffffffffffffffffffffff1602179055503373ffffffffffffffffffffffffffffffffffffffff167f324cb0062138d65997c86cd3012489ceb351d602f2f55c7408306e8040c79f3f60035460405161119391906128db565b60405180910390a26111a36127ed565b50505050565b60086020528060005260406000206000915054906101000a900460ff1681565b60065481565b6111d76127a7565b600760003373ffffffffffffffffffffffffffffffffffffffff1673ffffffffffffffffffffffffffffffffffffffff16815260200190815260200160002060009054906101000a900460ff16611263576040517f08c379a000000000000000000000000000000000000000000000000000000000815260040161125a906134b3565b60405180910390fd5b6000600a60003373ffffffffffffffffffffffffffffffffffffffff1673ffffffffffffffffffffffffffffffffffffffff1681526020019081526020016000206040518060800160405290816000820160009054906101000a900460ff1615151515815260200160018201548152602001600282015481526020016003820160009054906101000a900473ffffffffffffffffffffffffffffffffffffffff1673ffffffffffffffffffffffffffffffffffffffff1673ffffffffffffffffffffffffffffffffffffffff16815250509050806000015161137a576040517f08c379a00000000000000000000000000000000000000000000000000000000081526004016113719061351f565b60405180910390fd5b806040015142106113c0576040517f08c379a00000000000000000000000000000000000000000000000000000000081526004016113b79061358b565b60405180910390fd5b60008473ffffffffffffffffffffffffffffffffffffffff1684846040516113e99291906135ea565b600060405180830381855af49150503d8060008114611424576040519150601f19603f3d011682016040523d82523d6000602084013e611429565b606091505b505090508061146d576040517f08c379a00000000000000000000000000000000000000000000000000000000081526004016114649061364f565b60405180910390fd5b50506114776127ed565b505050565b60076020528060005260406000206000915054906101000a900460ff1681565b6114a4612720565b6114ae60006127f6565b565b60045481565b600a6020528060005260406000206000915090508060000160009054906101000a900460ff16908060010154908060020154908060030160009054906101000a900473ffffffffffffffffffffffffffffffffffffffff16905084565b60008060009054906101000a900473ffffffffffffffffffffffffffffffffffffffff16905090565b6115446127a7565b6000600a60003373ffffffffffffffffffffffffffffffffffffffff1673ffffffffffffffffffffffffffffffffffffffff1681526020019081526020016000206040518060800160405290816000820160009054906101000a900460ff1615151515815260200160018201548152602001600282015481526020016003820160009054906101000a900473ffffffffffffffffffffffffffffffffffffffff1673ffffffffffffffffffffffffffffffffffffffff1673ffffffffffffffffffffffffffffffffffffffff16815250509050806000015161165b576040517f08c379a00000000000000000000000000000000000000000000000000000000081526004016116529061351f565b60405180910390fd5b81816020015110156116a2576040517f08c379a0000000000000000000000000000000000000000000000000000000008152600401611699906136bb565b60405180910390fd5b806040015142106116e8576040517f08c379a00000000000000000000000000000000000000000000000000000000081526004016116df9061358b565b60405180910390fd5b600260009054906101000a900473ffffffffffffffffffffffffffffffffffffffff1673ffffffffffffffffffffffffffffffffffffffff166323b872dd3330856040518463ffffffff1660e01b8152600401611747939291906132f0565b6020604051808303816000875af1158015611766573d6000803e3d6000fd5b505050506040513d601f19601f8201168201806040525081019061178a9190613031565b6117c9576040517f08c379a00000000000000000000000000000000000000000000000000000000081526004016117c0906130aa565b60405180910390fd5b81600460008282546117db9190613433565b92505081905550506117eb6127ed565b50565b6117f66127a7565b600860003373ffffffffffffffffffffffffffffffffffffffff1673ffffffffffffffffffffffffffffffffffffffff16815260200190815260200160002060009054906101000a900460ff1615611883576040517f08c379a000000000000000000000000000000000000000000000000000000000815260040161187a9061323b565b60405180910390fd5b6000600281111561189757611896612990565b5b600c60009054906101000a900460ff1660028111156118b9576118b8612990565b5b146118f9576040517f08c379a00000000000000000000000000000000000000000000000000000000081526004016118f0906132a7565b60405180910390fd5b6001600760003373ffffffffffffffffffffffffffffffffffffffff1673ffffffffffffffffffffffffffffffffffffffff16815260200190815260200160002060006101000a81548160ff0219169083151502179055506000821115611abe57604051806080016040528060011515815260200183815260200162093a80426119839190613433565b81526020013073ffffffffffffffffffffffffffffffffffffffff16815250600a60003373ffffffffffffffffffffffffffffffffffffffff1673ffffffffffffffffffffffffffffffffffffffff16815260200190815260200160002060008201518160000160006101000a81548160ff021916908315150217905550602082015181600101556040820151816002015560608201518160030160006101000a81548173ffffffffffffffffffffffffffffffffffffffff021916908373ffffffffffffffffffffffffffffffffffffffff1602179055509050503373ffffffffffffffffffffffffffffffffffffffff167f748bf350abb9a0df801f89c4e78cd9f1589c9aa2c24400014d156b7ff21ad5748362093a8042611aa79190613433565b604051611ab59291906132c7565b60405180910390a25b600260009054906101000a900473ffffffffffffffffffffffffffffffffffffffff1673ffffffffffffffffffffffffffffffffffffffff166323b872dd33306003546040518463ffffffff1660e01b8152600401611b1f939291906132f0565b6020604051808303816000875af1158015611b3e573d6000803e3d6000fd5b505050506040513d601f19601f82011682018060405250810190611b629190613031565b611ba1576040517f08c379a0000000000000000000000000000000000000000000000000000000008152600401611b9890613373565b60405180910390fd5b600073ffffffffffffffffffffffffffffffffffffffff168173ffffffffffffffffffffffffffffffffffffffff1614158015611c275750600860008273ffffffffffffffffffffffffffffffffffffffff1673ffffffffffffffffffffffffffffffffffffffff16815260200190815260200160002060009054906101000a900460ff165b15611d7957600260009054906101000a900473ffffffffffffffffffffffffffffffffffffffff1673ffffffffffffffffffffffffffffffffffffffff1663a9059cbb826006546040518363ffffffff1660e01b8152600401611c8b929190612fdc565b6020604051808303816000875af1158015611caa573d6000803e3d6000fd5b505050506040513d601f19601f82011682018060405250810190611cce9190613031565b611d0d576040517f08c379a0000000000000000000000000000000000000000000000000000000008152600401611d04906133df565b60405180910390fd5b60065460046000828254611d2191906133ff565b925050819055508073ffffffffffffffffffffffffffffffffffffffff167f04b20935b234f45fda390d2df59d92b7bb8bed322d3bc8764e826cfff50007d5600654604051611d7091906128db565b60405180910390a25b600654600354611d8991906133ff565b60046000828254611d9a9190613433565b925050819055506001600860003373ffffffffffffffffffffffffffffffffffffffff1673ffffffffffffffffffffffffffffffffffffffff16815260200190815260200160002060006101000a81548160ff0219169083151502179055506009339080600181540180825580915050600190039060005260206000200160009091909190916101000a81548173ffffffffffffffffffffffffffffffffffffffff021916908373ffffffffffffffffffffffffffffffffffffffff1602179055503373ffffffffffffffffffffffffffffffffffffffff167f324cb0062138d65997c86cd3012489ceb351d602f2f55c7408306e8040c79f3f600354604051611ea491906128db565b60405180910390a2611eb46127ed565b505050565b600a60003373ffffffffffffffffffffffffffffffffffffffff1673ffffffffffffffffffffffffffffffffffffffff168152602001908152602001600020600080820160006101000a81549060ff0219169055600182016000905560028201600090556003820160006101000a81549073ffffffffffffffffffffffffffffffffffffffff021916905550503373ffffffffffffffffffffffffffffffffffffffff167f6b2e7b08f80aedc85dfabf602e4cd41ccf8a9caa2961dd13719c71c3ff65bbc760405160405180910390a2565b60098181548110611f9b57600080fd5b906000526020600020016000915054906101000a900473ffffffffffffffffffffffffffffffffffffffff1681565b611fd2612720565b60006002811115611fe657611fe5612990565b5b600c60009054906101000a900460ff16600281111561200857612007612990565b5b14612048576040517f08c379a000000000000000000000000000000000000000000000000000000000815260040161203f9061318d565b60405180910390fd5b60026009805490501015612091576040517f08c379a000000000000000000000000000000000000000000000000000000000815260040161208890613727565b60405180910390fd5b6001600c60006101000a81548160ff021916908360028111156120b7576120b6612990565b5b0217905550565b6000600980549050905090565b600080600a60008473ffffffffffffffffffffffffffffffffffffffff1673ffffffffffffffffffffffffffffffffffffffff1681526020019081526020016000206040518060800160405290816000820160009054906101000a900460ff1615151515815260200160018201548152602001600282015481526020016003820160009054906101000a900473ffffffffffffffffffffffffffffffffffffffff1673ffffffffffffffffffffffffffffffffffffffff1673ffffffffffffffffffffffffffffffffffffffff16815250509050806000015180156121b35750806040015142105b915050919050565b6121c36127a7565b6002808111156121d6576121d5612990565b5b600c60009054906101000a900460ff1660028111156121f8576121f7612990565b5b14612238576040517f08c379a000000000000000000000000000000000000000000000000000000000815260040161222f90613793565b60405180910390fd5b600860003373ffffffffffffffffffffffffffffffffffffffff1673ffffffffffffffffffffffffffffffffffffffff16815260200190815260200160002060009054906101000a900460ff166122c4576040517f08c379a00000000000000000000000000000000000000000000000000000000081526004016122bb90612fbc565b60405180910390fd5b600260009054906101000a900473ffffffffffffffffffffffffffffffffffffffff1673ffffffffffffffffffffffffffffffffffffffff1663a9059cbb33836040518363ffffffff1660e01b8152600401612321929190612fdc565b6020604051808303816000875af1158015612340573d6000803e3d6000fd5b505050506040513d601f19601f820116820180604052508101906123649190613031565b6123a3576040517f08c379a000000000000000000000000000000000000000000000000000000000815260040161239a906130aa565b60405180910390fd5b3373ffffffffffffffffffffffffffffffffffffffff167f95681e512bc0fe659e195e06c283eada494316f3d801213e48e7101af92bf770826040516123e991906128db565b60405180910390a26123f96127ed565b50565b6124046127a7565b600260009054906101000a900473ffffffffffffffffffffffffffffffffffffffff1673ffffffffffffffffffffffffffffffffffffffff166323b872dd3330846040518463ffffffff1660e01b8152600401612463939291906132f0565b6020604051808303816000875af1158015612482573d6000803e3d6000fd5b505050506040513d601f19601f820116820180604052508101906124a69190613031565b6124e5576040517f08c379a00000000000000000000000000000000000000000000000000000000081526004016124dc906130aa565b60405180910390fd5b80600460008282546124f79190613433565b925050819055506125066127ed565b50565b600b6020528060005260406000206000915054906101000a900460ff1681565b612531612720565b600073ffffffffffffffffffffffffffffffffffffffff168173ffffffffffffffffffffffffffffffffffffffff16036125a35760006040517f1e4fbdf700000000000000000000000000000000000000000000000000000000815260040161259a9190612dbd565b60405180910390fd5b6125ac816127f6565b50565b6125b76127a7565b604051806080016040528060011515815260200183815260200182426125dd9190613433565b81526020013073ffffffffffffffffffffffffffffffffffffffff16815250600a60003373ffffffffffffffffffffffffffffffffffffffff1673ffffffffffffffffffffffffffffffffffffffff16815260200190815260200160002060008201518160000160006101000a81548160ff021916908315150217905550602082015181600101556040820151816002015560608201518160030160006101000a81548173ffffffffffffffffffffffffffffffffffffffff021916908373ffffffffffffffffffffffffffffffffffffffff1602179055509050503373ffffffffffffffffffffffffffffffffffffffff167f748bf350abb9a0df801f89c4e78cd9f1589c9aa2c24400014d156b7ff21ad5748383426126fe9190613433565b60405161270c9291906132c7565b60405180910390a261271c6127ed565b5050565b6127286128ba565b73ffffffffffffffffffffffffffffffffffffffff16612746611513565b73ffffffffffffffffffffffffffffffffffffffff16146127a5576127696128ba565b6040517f118cdaa700000000000000000000000000000000000000000000000000000000815260040161279c9190612dbd565b60405180910390fd5b565b6002600154036127e3576040517f3ee5aeb500000000000000000000000000000000000000000000000000000000815260040160405180910390fd5b6002600181905550565b60018081905550565b60008060009054906101000a900473ffffffffffffffffffffffffffffffffffffffff169050816000806101000a81548173ffffffffffffffffffffffffffffffffffffffff021916908373ffffffffffffffffffffffffffffffffffffffff1602179055508173ffffffffffffffffffffffffffffffffffffffff168173ffffffffffffffffffffffffffffffffffffffff167f8be0079c531659141344cd1fd0a4f28419497f9722a3daafe3b4186f6b6457e060405160405180910390a35050565b600033905090565b6000819050919050565b6128d5816128c2565b82525050565b60006020820190506128f060008301846128cc565b92915050565b600073ffffffffffffffffffffffffffffffffffffffff82169050919050565b6000819050919050565b600061293b612936612931846128f6565b612916565b6128f6565b9050919050565b600061294d82612920565b9050919050565b600061295f82612942565b9050919050565b61296f81612954565b82525050565b600060208201905061298a6000830184612966565b92915050565b7f4e487b7100000000000000000000000000000000000000000000000000000000600052602160045260246000fd5b600381106129d0576129cf612990565b5b50565b60008190506129e1826129bf565b919050565b60006129f1826129d3565b9050919050565b612a01816129e6565b82525050565b6000602082019050612a1c60008301846129f8565b92915050565b600080fd5b600080fd5b600080fd5b600080fd5b600080fd5b60008083601f840112612a5157612a50612a2c565b5b8235905067ffffffffffffffff811115612a6e57612a6d612a31565b5b602083019150836020820283011115612a8a57612a89612a36565b5b9250929050565b60008083601f840112612aa757612aa6612a2c565b5b8235905067ffffffffffffffff811115612ac457612ac3612a31565b5b602083019150836020820283011115612ae057612adf612a36565b5b9250929050565b60008060008060408587031215612b0157612b00612a22565b5b600085013567ffffffffffffffff811115612b1f57612b1e612a27565b5b612b2b87828801612a3b565b9450945050602085013567ffffffffffffffff811115612b4e57612b4d612a27565b5b612b5a87828801612a91565b925092505092959194509250565b6000612b73826128f6565b9050919050565b612b8381612b68565b8114612b8e57600080fd5b50565b600081359050612ba081612b7a565b92915050565b600060208284031215612bbc57612bbb612a22565b5b6000612bca84828501612b91565b91505092915050565b6000819050919050565b612be681612bd3565b8114612bf157600080fd5b50565b600081359050612c0381612bdd565b92915050565b60008083601f840112612c1f57612c1e612a2c565b5b8235905067ffffffffffffffff811115612c3c57612c3b612a31565b5b602083019150836001820283011115612c5857612c57612a36565b5b9250929050565b60008060008060608587031215612c7957612c78612a22565b5b6000612c8787828801612bf4565b9450506020612c9887828801612b91565b935050604085013567ffffffffffffffff811115612cb957612cb8612a27565b5b612cc587828801612c09565b925092505092959194509250565b60008115159050919050565b612ce881612cd3565b82525050565b6000602082019050612d036000830184612cdf565b92915050565b600080600060408486031215612d2257612d21612a22565b5b6000612d3086828701612b91565b935050602084013567ffffffffffffffff811115612d5157612d50612a27565b5b612d5d86828701612c09565b92509250509250925092565b612d7281612b68565b82525050565b6000608082019050612d8d6000830187612cdf565b612d9a60208301866128cc565b612da760408301856128cc565b612db46060830184612d69565b95945050505050565b6000602082019050612dd26000830184612d69565b92915050565b612de1816128c2565b8114612dec57600080fd5b50565b600081359050612dfe81612dd8565b92915050565b600060208284031215612e1a57612e19612a22565b5b6000612e2884828501612def565b91505092915050565b600080600060608486031215612e4a57612e49612a22565b5b6000612e5886828701612bf4565b9350506020612e6986828701612def565b9250506040612e7a86828701612b91565b9150509250925092565b60008060408385031215612e9b57612e9a612a22565b5b6000612ea985828601612def565b9250506020612eba85828601612def565b9150509250929050565b600082825260208201905092915050565b7f4c656e677468206d69736d617463680000000000000000000000000000000000600082015250565b6000612f0b600f83612ec4565b9150612f1682612ed5565b602082019050919050565b60006020820190508181036000830152612f3a81612efe565b9050919050565b7f4e487b7100000000000000000000000000000000000000000000000000000000600052603260045260246000fd5b7f4e6f742072656769737465726564000000000000000000000000000000000000600082015250565b6000612fa6600e83612ec4565b9150612fb182612f70565b602082019050919050565b60006020820190508181036000830152612fd581612f99565b9050919050565b6000604082019050612ff16000830185612d69565b612ffe60208301846128cc565b9392505050565b61300e81612cd3565b811461301957600080fd5b50565b60008151905061302b81613005565b92915050565b60006020828403121561304757613046612a22565b5b60006130558482850161301c565b91505092915050565b7f5472616e73666572206661696c65640000000000000000000000000000000000600082015250565b6000613094600f83612ec4565b915061309f8261305e565b602082019050919050565b600060208201905081810360008301526130c381613087565b9050919050565b7f4e487b7100000000000000000000000000000000000000000000000000000000600052601160045260246000fd5b6000613104826128c2565b91507fffffffffffffffffffffffffffffffffffffffffffffffffffffffffffffffff8203613136576131356130ca565b5b600182019050919050565b7f496e76616c696420737461747573000000000000000000000000000000000000600082015250565b6000613177600e83612ec4565b915061318282613141565b602082019050919050565b600060208201905081810360008301526131a68161316a565b9050919050565b60006131b8826128c2565b91506131c3836128c2565b92508282026131d1816128c2565b915082820484148315176131e8576131e76130ca565b5b5092915050565b7f416c726561647920726567697374657265640000000000000000000000000000600082015250565b6000613225601283612ec4565b9150613230826131ef565b602082019050919050565b6000602082019050818103600083015261325481613218565b9050919050565b7f546f75726e616d656e7420737461727465640000000000000000000000000000600082015250565b6000613291601283612ec4565b915061329c8261325b565b602082019050919050565b600060208201905081810360008301526132c081613284565b9050919050565b60006040820190506132dc60008301856128cc565b6132e960208301846128cc565b9392505050565b60006060820190506133056000830186612d69565b6133126020830185612d69565b61331f60408301846128cc565b949350505050565b7f456e74727920666565206661696c656400000000000000000000000000000000600082015250565b600061335d601083612ec4565b915061336882613327565b602082019050919050565b6000602082019050818103600083015261338c81613350565b9050919050565b7f526566657272616c207472616e73666572206661696c65640000000000000000600082015250565b60006133c9601883612ec4565b91506133d482613393565b602082019050919050565b600060208201905081810360008301526133f8816133bc565b9050919050565b600061340a826128c2565b9150613415836128c2565b925082820390508181111561342d5761342c6130ca565b5b92915050565b600061343e826128c2565b9150613449836128c2565b9250828201905080821115613461576134606130ca565b5b92915050565b7f4e6f7420736d617274206163636f756e74000000000000000000000000000000600082015250565b600061349d601183612ec4565b91506134a882613467565b602082019050919050565b600060208201905081810360008301526134cc81613490565b9050919050565b7f4e6f2064656c65676174696f6e20636f6e666967757265640000000000000000600082015250565b6000613509601883612ec4565b9150613514826134d3565b602082019050919050565b60006020820190508181036000830152613538816134fc565b9050919050565b7f44656c65676174696f6e20657870697265640000000000000000000000000000600082015250565b6000613575601283612ec4565b91506135808261353f565b602082019050919050565b600060208201905081810360008301526135a481613568565b9050919050565b600081905092915050565b82818337600083830152505050565b60006135d183856135ab565b93506135de8385846135b6565b82840190509392505050565b60006135f78284866135c5565b91508190509392505050565b7f44656c6567617465642063616c6c206661696c65640000000000000000000000600082015250565b6000613639601583612ec4565b915061364482613603565b602082019050919050565b600060208201905081810360008301526136688161362c565b9050919050565b7f457863656564732064656c65676174696f6e206c696d69740000000000000000600082015250565b60006136a5601883612ec4565b91506136b08261366f565b602082019050919050565b600060208201905081810360008301526136d481613698565b9050919050565b7f4e65656420322b20706c61796572730000000000000000000000000000000000600082015250565b6000613711600f83612ec4565b915061371c826136db565b602082019050919050565b6000602082019050818103600083015261374081613704565b9050919050565b7f546f75726e616d656e74206e6f7420656e646564000000000000000000000000600082015250565b600061377d601483612ec4565b915061378882613747565b602082019050919050565b600060208201905081810360008301526137ac81613770565b905091905056fea264697066735822122040695088970af78d65a2397c08b2c25e9a3d145ee46234b010451a8dbb654faa64736f6c63430008140033",
  "linkReferences": {},
  "deployedLinkReferences": {}
}