{
  "_format": "hh-sol-artifact-1",
  "contractName": "MockAgentVerifier",
  "sourceName": "contracts/mocks/MockAgentVerifier.sol",
  "abi": [
    {
      "inputs": [
        {
          "internalType": "bytes32",
          "name": "",
          "type": "bytes32"
        },
        {
          "internalType": "address",
          "name": "addr",
          "type": "address"
        }
      ],
      "name": "canParticipate",
      "outputs": [
        {
          "internalType": "bool",
          "name": "",
          "type": "bool"
        }
      ],
      "stateMutability": "view",
      "type": "function"
    },
    {
      "inputs": [
        {
          "internalType": "address",
          "name": "",
          "type": "address"
        }
      ],
      "name": "isVerified",
      "outputs": [
        {
          "internalType": "bool",
          "name": "",
          "type": "bool"
        }
      ],
      "stateMutability": "view",
      "type": "function"
    },
    {
      "inputs": [
        {
          "internalType": "address",
          "name": "addr",
          "type": "address"
        },
        {
          "internalType": "bool",
          "name": "status",
          "type": "bool"
        }
      ],
      "name": "setVerified",
      "outputs": [],
      "stateMutability": "nonpayable",
      "type": "function"
    }
  ],
  "bytecode": "0x608060405234801561001057600080fd5b50610370806100206000396000f3fe608060405234801561001057600080fd5b50600436106100415760003560e01c80632ffb9370146100465780639cf5c61314610076578063b9209e3314610092575b600080fd5b610060600480360381019061005b919061022b565b6100c2565b60405161006d9190610286565b60405180910390f35b610090600480360381019061008b91906102cd565b610118565b005b6100ac60048036038101906100a7919061030d565b610172565b6040516100b99190610286565b60405180910390f35b60008060008373ffffffffffffffffffffffffffffffffffffffff1673ffffffffffffffffffffffffffffffffffffffff16815260200190815260200160002060009054906101000a900460ff16905092915050565b806000808473ffffffffffffffffffffffffffffffffffffffff1673ffffffffffffffffffffffffffffffffffffffff16815260200190815260200160002060006101000a81548160ff0219169083151502179055505050565b60006020528060005260406000206000915054906101000a900460ff1681565b600080fd5b6000819050919050565b6101aa81610197565b81146101b557600080fd5b50565b6000813590506101c7816101a1565b92915050565b600073ffffffffffffffffffffffffffffffffffffffff82169050919050565b60006101f8826101cd565b9050919050565b610208816101ed565b811461021357600080fd5b50565b600081359050610225816101ff565b92915050565b6000806040838503121561024257610241610192565b5b6000610250858286016101b8565b925050602061026185828601610216565b9150509250929050565b60008115159050919050565b6102808161026b565b82525050565b600060208201905061029b6000830184610277565b92915050565b6102aa8161026b565b81146102b557600080fd5b50565b6000813590506102c7816102a1565b92915050565b600080604083850312156102e4576102e3610192565b5b60006102f285828601610216565b9250506020610303858286016102b8565b9150509250929050565b60006020828403121561032357610322610192565b5b600061033184828501610216565b9150509291505056fea26469706673582212204c227a91eb4dfefc5c1230ec750aed01849bacef46b54329da492b06c6f9603664736f6c63430008140033",
  "linkReferences": {},
  "deployedLinkReferences": {}
}